:020000040800F2
:10000000180B0020250200081D210008891E000889
:1000100019210008E31500084B310008000000001A
:100020000000000000000000000000007D2A000821
:10003000A51B00080000000001260008A12B0008F5
:100040003F0200083F0200083F0200083F0200088C
:100050003F0200083F0200083F0200083F0200087C
:100060003F0200083F0200083F0200083F0200086C
:100070003F0200083F0200083F0200083F0200085C
:100080003F0200083F0200083F0200083F0200084C
:100090003F0200083F0200083F0200083F0200083C
:1000A0003F0200083F0200083F0200083F0200082C
:1000B000912C00083F0200083F0200083F020008A0
:1000C0003F0200083F0200083F0200083F0200080C
:1000D0003F020008852F00083F0200083F02000889
:1000E0003F0200083F0200083F0200083F020008EC
:1000F0003F0200083F0200083F0200083F020008DC
:100100003F0200083F0200083F0200083F020008CB
:100110003F0200083F0200083F0200083F020008BB
:100120003F0200083F0200083F0200083F020008AB
:1001300000F002F800F067F80AA090E8000C824492
:100140008344AAF10107DA4501D100F05CF8AFF26F
:10015000090EBAE80F0013F0010F18BFFB1A43F0A5
:1001600001031847A4450000C44500000A444FF0AD
:10017000000C10F8013B13F0070408BF10F8014B06
:100180001D1108BF10F8015B641E05D010F8016B4B
:10019000641E01F8016BF9D113F0080F1EBF10F8AF
:1001A000014BAD1C0C1B09D16D1E58BF01F801CBD2
:1001B000FAD505E014F8016B01F8016B6D1EF9D555
:1001C0009142D6D37047000000230024002500266A
:1001D000103A28BF78C1FBD8520728BF30C148BFAA
:1001E0000B607047662903F03686002070471FB504
:1001F00000F02EFB04000020002103F083F8E060F3
:100200001FBD10B510BD00F023FC1146FFF7EFFF36
:1002100003F064F800F041FC03B4FFF7F2FF03BC05
:1002200003F00DF80948804709480047FEE7FEE75C
:10023000FEE7FEE7FEE7FEE7FEE7FEE7FEE7FEE796
:1002400004480549054A064B70470000ED2B00089D
:100250003101000818050020180B002018070020A5
:1002600018070020704700000FB41CB5074B06AA02
:100270007B4469460090059800F0D1FA0020694659
:1002800000F0E0FA1CBC5DF814FB0000D105000092
:100290002DE9F0474FF0000A89460446C0F820A037
:1002A0002046E1688847002876D0252806D0D4E982
:1002B00001219047206A401C2062F1E7E168204656
:1002C00000258847C4F81CA006460027C4F818A0DB
:1002D0002A2E09D0304602F0ABFF38B304EB870872
:1002E000303EC8F8186019E059F8041B204604EBAA
:1002F00087029161E1688847012F064618D1E069BD
:10030000002820DA25F020051DE0D8F8180000EBC1
:10031000800006EB40003038C8F818002046E1683D
:100320008847064602F084FF0028EED1012F0AD04C
:100330002E2E08D12046E16888477F1C0646022FF2
:1003400045F02005C4DBA069002803DA404245F0EF
:100350000105A061E80701D025F01005B6B1A6F1AE
:100360004100192802D8203645F400654A46314636
:10037000204625604D46FFF735FF58B1012806D0CD
:10038000ED1D25F0070000F1080989E704E005F1FB
:10039000040985E730468AE7206ABDE8F0874FF018
:1003A000000200B5134694469646203922BFA0E8C5
:1003B0000C50A0E80C50B1F12001BFF4F7AF0907D1
:1003C00028BFA0E80C5048BF0CC05DF804EB8900C2
:1003D00028BF40F8042B08BF704748BF20F8022B05
:1003E00011F0804F18BF00F8012B7047704770471D
:1003F0007047704770472DE9FF4F0C461E464FF07F
:10040000FF378BB0D2E90001DDF860800A908A46A0
:10041000C1F30A5505B93D46002108464FF00000DA
:10042000BAF1000F00F4400005DA00EB80004FF451
:10043000400101EA50004FEA9059B9F1010F00DD87
:10044000B9460A9850EA4A000ED044F61050A5F278
:10045000FF3545432F14B8F1000F1ED07542291EF9
:100460001EDDC9F100021CE0B8F1010F4FF00000E1
:1004700001D0302103E0F24305E02154401CB0429A
:10048000FBDB30460022002121540B99C1F8088083
:10049000C1E900200FB0BDE8F08FBD1B6D1CDEE789
:1004A0004A4600DA694206A800F05CFA06AB93E817
:1004B000070003AB83E8070050460A9900F036FBBB
:1004C0008DE80700A0F500501F3800900398002D1C
:1004D0000ADD42F21F014A460844002303A90390A3
:1004E000684600F09FFD09E0A0F500504A461F381D
:1004F000002303A90390684600F0A9FD8DE80700DA
:100500000004000C03D04FF0FF30410800E010461B
:10051000B8F1000F03D00022009215461EE0751EB0
:1005200005D400F099F9303262556D1EF9D5B34605
:100530000122084302D000227F1C04E020783028EA
:1005400001D100227F1E002A099784D01DE0112DC1
:1005500007DA00F081F9303262556D1C50EA010271
:10056000F5D1084302D00098C8B10EE00021681E02
:1005700005E0235C625C63542254401E491C8142A6
:10058000F7DBAB46A81B401E0990002004F80B00C7
:100590000B98099AC0F80880C0E9002B7AE7112669
:1005A0004FF0000857E72DE9F04F88460446D21D6A
:1005B00022F0070191B0D1E90001CDE90A0102F072
:1005C00023FE02460B98C00F01D02D2007E02068C3
:1005D000810701D52B2002E0202101EAC000032A77
:1005E000099001D0072A05DB03464146204600F06A
:1005F00079F90BE12078800601D5E06900E006205A
:10060000B8F1650F814606D0B8F1660F18D0B8F181
:10061000670F70D131E00020B9F1110F009001DBBC
:10062000112301E009F101030AAA01A90CA8FFF7AF
:10063000E2FEDDE90C70002609F10105834647E082
:1006400001204B4600904FF000470AAA01A90CA8D0
:10065000FFF7D1FEDDE90DB00C995D46002610B91B
:1006600009F101000D18B9EB050003D4C0F1FF3604
:1006700009F10105A5EB09002BE0B9F1010F01DA41
:100680004FF001090020B9F1110F0090484601DD3B
:10069000112300E003460AAA01A90CA8FFF7ABFE4C
:1006A000DDE90C704D4600268346207800070AD409
:1006B000AB4500DA5D4601A8012D04DD411911F8B2
:1006C000011C302907D04F4502DA17F1040F04DA74
:1006D000012082460FE06D1EEEE7002F02DCED1BCD
:1006E0003E4403E0781CA84200DD7D1CB81B00F1ED
:1006F000010A4FF000472078000703D4AA4501DB28
:100700004FF0FF3A0021B7F1004F0DF143088DF88B
:10071000431024D002202B23002F01DA7F422D2307
:100720000A21021EA0F1010000DC5FB197FBF1FC81
:1007300097FBF1F201FB1C7C17460CF1300C08F81A
:1007400001CDEEE7A8F1010003702188090501D56C
:10075000452100E06521A0F1010800F8011C09987D
:100760000FA9A1EB0807FF1D00B10120411901EB02
:10077000EA70A1693844081A401EA0612078C006BA
:1007800002D42046AFF30080099828B1D4E90121B2
:100790009047206A401C20622078C00622D520465F
:1007A000AFF300801EE0002E04DBB34502DD01A89C
:1007B000805D00E03020D4E901219047206A401C90
:1007C0002062761CAAF101005FEA000A0AD100F05B
:1007D0003FF8C0680168405CD4E901219047206A75
:1007E000401C2062281EA5F10105DCDC07E0D4E9ED
:1007F000012118F8010B9047206A401C2062381E26
:10080000A7F10107F3DC2046AFF30080032011B00D
:1008100041E6000001694A1C02610878704700B592
:100820008FB0CDE901310021059105497944CDE929
:10083000031011466846FFF72BFD0FB000BD000006
:10084000E5FFFFFF0A6802F8010B0A60704700002D
:1008500000487047D404002030B5B0F10A024FEAD6
:10086000900E71F100034EEA817EB0EB0E0061EB59
:1008700091014FEA101E4EEA017E10EB0E0041EB93
:1008800011114FEA102E4EEA016E10EB0E0041EBF3
:1008900011214FEA104E4EEA014E10EB0E0041EBD3
:1008A0001141401841F100014FEAD00040EA417087
:1008B0004FEAD10110EB80054FEA810444EA9074BD
:1008C00044EB01046D1944EB0404521BA3414FF0A7
:1008D000000348BF0A3200D530BD401C41F1000181
:1008E00030BD00002DE9F0411F4604460326016893
:1008F000072A01F4006004DB08B116A505E016A57F
:1009000003E008B115A500E015A521F01000206056
:10091000A069C01EA0610FB1401EA0612046AFF3C8
:1009200000804FB1D4E9012138469047206A401C2D
:100930002062C01C206206E0206AFAE7D4E90121A7
:1009400015F8010B9047761EF8D22046AFF30080D1
:10095000BDE8F0814E414E006E616E00494E46008A
:10096000696E66002DE9F047814616468AB0354823
:1009700078440DC88DE80D0032487844801C03ACE3
:100980000DC884E80D0041F69B300844372190FBE8
:10099000F1F290FBF1F5A5F1800501FB12041B3C7F
:1009A00002D56442012000E00020DFF898A08046D4
:1009B0000027FA44AAF1BE0A0EE0E0070AD0324648
:1009C000684607EB470101230AEB810100F03FFB7A
:1009D0008DE8070064107F1C002CEED1194F7F4476
:1009E000AE3F19E0E80715D007EB04100DF1180A27
:1009F00090E80E008AE80E00C068F04201D1981914
:100A000008903246012306A903A800F020FB03AB9F
:100A100083E807006D10641C002DE3D14FF0010343
:100A200032466946B8F1000F03A802D000F0FAFA86
:100A300001E000F00CFBC9E90001C9F808200AB088
:100A4000BDE8F0877C3D000000487047B4040020FA
:100A50007546FFF7F9FFAE4605006946534620F09C
:100A60000700854618B020B5FFF7EAFBBDE8204037
:100A70004FF000064FF000074FF000084FF0000B5A
:100A800021F00701AC46ACE8C009ACE8C009ACE80D
:100A9000C009ACE8C0098D46704710B50446AFF3F5
:100AA00000802046BDE81040FFF7B6BB4FF0013C88
:100AB00050F8042B51F8043B9A4221D1A2EB0C03CD
:100AC000934313EACC1317D150F8042B51F8043B8D
:100AD0009A4215D1A2EB0C03934313EACC130BD12A
:100AE00050F8042B51F8043B9A4209D1A2EB0C03B5
:100AF000934313EACC13DBD04FF00000704700BFE4
:100B0000D01A01BAB1FA81F101F0180122FA01F00C
:100B1000CB40C1F12001DBB2C0B2C01A2CFA01F304
:100B2000D11A914311EAC311E6D170475FEA400C34
:100B300008BF91F0000F4FEA8C234FEAC12243EA2D
:100B400051514FEA1C5018BF00F5F0404FEA3000F9
:100B500018BF41F000415FEA6C5C00F02980BCF1F5
:100B6000FF3F08BF40F080407047130C06BF1204DF
:100B70004FF0100C4FF0000C130E04BF12020CF1DA
:100B8000080C130F04BF12010CF1040C930F04BFE7
:100B900092000CF1020CD30F04BF52000CF1010CB7
:100BA00011464FF00002A0F11F00A0EB0C007047AF
:100BB00011F0004F08BF704731F000413FF4D5AF4E
:100BC0000B0C06BF09044FF0100C4FF0000C0B0E7D
:100BD00004BF09020CF1080C0B0F04BF09010CF152
:100BE000040C8B0F04BF89000CF1020CCB0F04BF67
:100BF00049000CF1010CCCF12003A0EB0C0022FA0F
:100C000003F302FA0CF241EA030100F1010070471C
:100C100020F07F4C80EA030023F07F47ACEB070312
:100C200003F57C5300F0004003F1FF032DE98049F8
:100C30004FEA154B09B44FEA144325EA0B4E24EA58
:100C400003480FF2042606EB132749083E785FEAB3
:100C5000320203FB0667C7F5000707FB06F64FEAFB
:100C600054374FEAD64606F1020607FB066CCCF174
:100C7000005C4FEA1C472CEA074C07FB06F40CFB10
:100C800006F504EB15464FEA961634BF00204FF0E8
:100C900000404FEAD13706FB07FC4FEA1C4C0CFB27
:100CA0000BF7D21B03FB0CF761EB07010CFB0EF7F4
:100CB000B0EB074072EB17420CFB08F734BFA2EB16
:100CC0000742B2EB074261EB17414FEA0C444FEA8F
:100CD000910706FB07FC4FEA1C4C0CFB0BF7B0EB33
:100CE000C74072EB573203FB0CF734BFA2EBC7428D
:100CF000B2EBC74261EB57310CFB0EF7B0EBC7000C
:100D000072EB57720CFB08F734BFA2EBC702B2EBD1
:100D1000C70261EB5771039F4FEA816141EA92116B
:100D200004EBCC044FEAD1374FEA826206FB07FCA2
:100D300042EA90124FEA80604FEA1C4C0CFB0BF722
:100D4000D21B03FB0CF761EB07010CFB0EF7B0EBBA
:100D5000074072EB17420CFB08F734BFA2EB0742C7
:100D6000B2EB074261EB17414FEA8C554FEA91070E
:100D700004EB9C2406FB07FC4FEA1C4C0CFB0BF716
:100D8000B0EBC74072EB573203FB0CF734BFA2EB5A
:100D9000C742B2EBC74261EB57310CFB0EF7B0EB29
:100DA000C70072EB57720CFB08F734BFA2EBC70207
:100DB000B2EBC70261EB577115EB4C254FEA81612D
:100DC00041EA92114FEA82624FEAD13742EA901229
:100DD00006FB07FC44F100044FEA80604FEA1C4C1C
:100DE0000CFB0BF7D21B03FB0CF761EB07010CFBB1
:100DF0000EF7B0EB074072EB17420CFB08F734BF5D
:100E0000A2EB0742B2EB074261EB174115EB1C1551
:100E10004FEA813141EA92414FEA823242EA9042FE
:100E20004FEA80304FEA0C7644F1000448EA03436D
:100E30004EEA0B484FF0000EB2EB080C71EB0307C3
:100E400024BF624639464EEB0E0E4FF0000B0018E1
:100E5000524149414BEB0B0BB2EB080C71EB030712
:100E60007BF1000B24BF624639464EEB0E0E4FF06D
:100E7000000B0018524149414BEB0B0BB2EB080C35
:100E800071EB03077BF1000B24BF624639464EEB42
:100E90000E0E51EA020718BF46F0010616EB0E7659
:100EA00055F1000254F1000103D5BDE88901BDE808
:100EB0000088BDE88901BDE80048B619524141EB00
:100EC0000101A3F10103704780807F7E7D7C7B7AE6
:100ED0007978777676757473727171706F6E6E6DE6
:100EE0006C6C6B6A6A69686867666665646463638C
:100EF00062616160605F5F5E5E5D5D5C5C5B5B5A12
:100F00005A5959585857575656555555545453537E
:100F100052525251515050504F4F4F4E4E4D4D4DD9
:100F20004C4C4C4B4B4B4A4A4A4949494848484724
:100F30004747474646464545454444444443434362
:100F40004342424242414141002B9C4630D477000B
:100F50002BD01CB54FEA370703B44FF010004FF009
:100F60001001BAF1000F06D0BCF1000FDCBF40F059
:100F7000080040F008014FF000000FBCBDE8104031
:100F80000BF1010BBBF1010F08BF5FEA170722BF8E
:100F900012F1010211F101014FF0004143F1000390
:100FA00000F0004043EA00007047F9D35708D0E74B
:100FB00046EA064613F1400F4FEA16461FDD13F1CD
:100FC000200FDFBF16430A46002120335B42BED00C
:100FD000C3F1200746EA064602FA07F74FEA16462B
:100FE00046EA0706C3F1200722FA03F201FA07F7DF
:100FF00021FA03F14FF0000342EA0702A7E746EAAD
:10100000020646EA06464FEA164646EA0106BCBF15
:1010100046EA0646360C4FF000034FF000024FF050
:10102000000194E72DE9804C9A46934670B491E80C
:10103000380007C831EA400C48BF34EA430C03D5F6
:10104000FFF7E6FDFFF780FFF0BCBDE8008C2DE95F
:10105000804C9A46934670B491E8380007C810F067
:10106000804F08BF13F0804F03D100F005F8FFF761
:101070006BFFF0BCBDE8008C20F07F4780EA0300E6
:1010800023F07F4C07EB0C03A3F57C5300F00040EA
:10109000A3F1FE0392F0000F00F0B38095F0000F73
:1010A00000F077802DE901494FEA11404FEA1446DC
:1010B00021EA004800FB06FC24EA064708FB06F686
:1010C00007FB08F800FB07F718EB06484CEB164C3B
:1010D0004FEA124B18EB07484FEA15464CEB174006
:1010E00022EA0B4E0BFB06FC25EA06470EFB06F632
:1010F00007FB0EFE0BFB07F71EEB064E4CEB164CE8
:101100004FF000061EEB074E4CEB174B18EB0B088D
:1011100040F1000018EB0E0B58EB000840F1000006
:101120008F1A4FF000013CBFC943661B14BFB5EBDB
:10113000040C00213CBFC943F61B4FEA17444EEA9A
:101140008E0E27EA04454FEA1C4704FB07622CEA8F
:10115000074C05FB07F70CFB05F604FB0CFC16EB34
:10116000074642EB174216EB0C4642EB1C421BEBC8
:10117000060658EB0202414146EA9E0601D5BDE84B
:101180000189B619524141EB0101A3F10103BDE808
:1011900001894FEA14454FEA114724EA054621EA3E
:1011A000074C05FB07F406FB07F70CFB06F105FBF4
:1011B0000CFC11EB074144EB17444FEA124711EBCB
:1011C0000C4144EB1C4422EA074C05FB07F206FBEA
:1011D00007F70CFB06F605FB0CFC16EB074642EB8B
:1011E000174216EB0C4642EB1C456A1854F10001FD
:1011F00048BF7047B619524141EB0101A3F1010309
:10120000704795F0000F37D04FEA11424FEA14476C
:1012100021EA024624EA074C02FB07F106FB07F726
:101220000CFB06F402FB0CFC14EB074441EB1741EA
:101230004FEA154714EB0C4441EB1C4125EA074CDF
:1012400002FB07F506FB07F70CFB06F602FB0CFC9E
:1012500016EB074645EB174516EB0C4645EB1C42D3
:10126000121951F1000148BF7047B619524141EBC4
:101270000101A3F1010370474FEA14454FEA1147FA
:1012800024EA054621EA074C05FB07F106FB07F7B0
:101290000CFB06F24FF0000605FB0CFC12EB0742BC
:1012A00041EB174112EB0C4251EB1C4148BF704718
:1012B000921841EB0101A3F10103704710B500F052
:1012C00023F900F037F910BD00B58BB0104800F0DD
:1012D000A5FB1048009010480190002002900120CA
:1012E000039000200490802005904000069080002C
:1012F00007902020089000200A906946044800F0DA
:1013000033FC0121024800F07DFB0BB000BD000062
:10131000080002404C240140A004002021B1826852
:1013200042F00102826003E0826822F001028260E2
:101330007047000010B504461248844208D10121CC
:10134000401501F0B9F90021601501F0B5F917E079
:101350000D48844208D10121001501F0ADF90021AA
:10136000201501F0A9F90BE00848844208D10121B9
:10137000C80301F0A1F900214FF4004001F09CF9ED
:1013800010BD00000024014000280140003C014045
:10139000014600208A6802F004020AB1012000E040
:1013A000002070470146C86C80B27047024600209A
:1013B00013680B400BB1012000E00020704701468C
:1013C00000208A6802F008020AB1012000E0002033
:1013D0007047000030B502460020002350680F4CD3
:1013E00020400D790C6844EA052420435060906841
:1013F0000B4C2040D1E902542C434D7944EA45047A
:1014000020439060D06A20F470000C7C641EE4B22B
:10141000234340EA0350D06230BD0000FFFEF0FFDE
:10142000FDF7F1FFF0B504460D4600200021092D1F
:1014300011DDE068A5F10A0606EB4607072606FA65
:1014400007F18843A5F10A0606EB460603FA06F102
:101450000843E0600CE0206905EB4507072606FA23
:1014600007F1884305EB450603FA06F108432061BE
:10147000072A0FDA606B561E06EB86071F2606FA50
:1014800007F18843561E06EB860605FA06F1084367
:10149000606322E00D2A0FDA206BD61F06EB860769
:1014A0001F2606FA07F18843D61F06EB860605FAC3
:1014B00006F10843206310E0E06AA2F10D0606EB96
:1014C00086071F2606FA07F18843A2F10D0606EBF0
:1014D000860605FA06F10843E062F0BD816841F036
:1014E00008018160704721B1826842F4A0028260E5
:1014F00003E0826822F4A00282607047816841F0B4
:10150000040181607047000008B50121042001F04A
:10151000C3F88020ADF8000000208DF80300032000
:101520008DF802006946024800F07AFB08BD000011
:101530000008014000B585B0FFF7C6FE002000900E
:101540004FF4004001F07CF81648FFF7F3FE00204E
:101550008DF8050003904FF4602002900020009069
:1015600001208DF8100000208DF8040069460D4818
:10157000FFF730FF01210B48FFF7D0FE0948FFF7C6
:10158000ADFF00BF0748FFF71AFF0028FAD1054852
:10159000FFF7B4FF00BF0348FFF7FAFE0028FAD1B7
:1015A00005B000BD0024014010B501F0FDFA01F0C6
:1015B00028F800F0F9FA00F0B2FD01F0A1FC01F00A
:1015C00045FB01F09FFB01F0CFFA00F019FE01F09E
:1015D000FBF8FFF773FE40F27121042000F0C2FC1B
:1015E00010BD00BFFEE700002DE9F04FABB04FF09B
:1015F000000A502116A8FEF7D2FE502102A8FEF7DD
:10160000CEFED346002001902AA800F0E3FC00287B
:1016100072D19DF8A800012806D002286DD00328B9
:101620006CD004286BD1EDE0D9480068C0F30110FC
:1016300080B1D748006800F0030058B900F06FFE91
:10164000D34800680009401CD149096860F30511BE
:10165000CF48016005240BE0601F00F0FF0921075F
:10166000080ECC4B4A46022100F0C7FE601CC4B2F3
:10167000062CF1DB01F016F98246504602F0ACF977
:1016800005462A460B46C4A116A8FEF7EDFD102319
:1016900016AA0221282000F02DFF504602F09CF9E6
:1016A0000546BF4ABF4B02F077F829D8504602F0F2
:1016B00093F905460022BC4B01F034FF20D80024EA
:1016C00017E00A2000F098F90021084600F0ECFC31
:1016D0004FF4FA7001F0B6FD002000F08DF9012101
:1016E000002000F0E1FC4FF4FA7001F0ABFD601C4B
:1016F000C4B2052CE5DB7EE046E11AE1F7E041E10A
:10170000504602F069F90546A84AA94B02F044F890
:1017100025D8504602F060F905460022A54B01F09D
:1017200001FF1CD8002417E00A2000F065F9002111
:10173000084600F0B9FC4FF4967001F083FD0020DC
:1017400000F05AF90121002000F0AEFC4FF4967031
:1017500001F078FD601CC4B2052CE5DB4BE050467F
:1017600002F03AF90546914A934B02F015F823D856
:10177000504602F031F905460022904B01F0D2FEAE
:101780001AD8002415E00A2000F036F90021084696
:1017900000F08AFC502001F055FD002000F02CF9EB
:1017A0000121002000F080FC502001F04BFD601C66
:1017B000C4B2052CE7DB1EE08149504602F01AFB5B
:1017C00019D2002415E00A2000F016F9002108467D
:1017D00000F06AFC322001F035FD002000F00CF929
:1017E0000121002000F060FC322001F02BFD601C84
:1017F000C4B2052CE7DB6648006820F00C006449A1
:101800000860C0E062480068C0F3011000286DD095
:101810005F480068C0F3810088B900F080FD1023A4
:1018200056220221502000F013FE5948006880081B
:10183000401C5749096860F383015548016000F076
:1018400007FB83465F49584602F008FA05465E49A1
:1018500002F0FAF80190019802F0BEF805462A4617
:101860000B465AA102A8FEF7FFFC584602F0B4F856
:1018700007464FF03332574B01F08CFD05462A46A0
:101880000B4652A102A8FEF7EFFC102302AA022188
:10189000282000F02FFE584602F09EF80546002250
:1018A0004D4B01F03FFE1BD2002417E00A2000F050
:1018B000A3F80021012000F0F7FB4FF4487001F07D
:1018C000C1FC002000F098F80121084600F0ECFB74
:1018D0004FF4487001F0B6FC601CC4B2052CE5DB87
:1018E0002B48006820F00300294908604BE00A20DB
:1018F00001F0CEFC00F0F4FC4FF4FA7001F0A2FC11
:1019000036480823802200210090084600F026FD7A
:101910001F48006820F030001D4908600846006834
:1019200020F0030008600846006820F00C00086002
:1019300029E000F0D5FC4FF4FA7001F083FC284850
:101940000823802200210090084600F007FD1023A4
:1019500024A20221002000F0CDFD0D4800680009FE
:10196000401C0B49096860F30511094801600068D3
:1019700020F00300064908600846006820F00C00CB
:10198000086000E000BF00BF2BB0BDE8F08F000092
:101990008004002024040020252E31660000000071
:1019A0009A9999999999424000004340CDCCCCCC6A
:1019B000CC0C434000804340CC8C434000804440EA
:1019C000000024420000A04100002041252E326684
:1019D000000000003333F33F0000F83F28000020F0
:1019E000280200202854293A7570202856293A6484
:1019F0006F776D20000000000149088070470000EB
:101A00004004004021B1026842F00102026004E09B
:101A100002684FF6FE731A400260704701684FF685
:101A2000FE72114001600021016041608160C1606F
:101A30004B49884208D14A490839496841F00F01A9
:101A4000474A083A51608AE045491431884208D132
:101A500043490839496841F0F001414A083A516068
:101A60007DE03F492831884208D13D49083949681D
:101A700041F470613A4A083A516070E038493C31AB
:101A8000884208D136490839496841F47041344ADE
:101A9000083A516063E032495031884208D13049F8
:101AA0000839496841F470212D4A083A516056E0DE
:101AB0002B496431884208D129490839496841F4E1
:101AC0007001274A083A516049E025497831884237
:101AD00008D123490839496841F07061204A083A21
:101AE00051603CE01F49884206D1011F096841F05E
:101AF0000F01021F116032E01A491431884208D1E7
:101B00001849091F096841F0F001164A121F1160B7
:101B100025E014492831884208D11249091F096873
:101B200041F470610F4A121F116018E00D493C31F9
:101B3000884208D10B49091F096841F47041094ADC
:101B4000121F11600BE007495031884207D1054947
:101B5000091F096841F47021024A121F1160704781
:101B6000080002400804024010B50022026847F64F
:101B7000F0739A430C6A8B6823430C6923434C69C6
:101B800023438C692343CC6923434C6A23438C6AE7
:101B900023431A430260CB6843600B6883604B6841
:101BA000C36010BD7047000008B50121194800F05E
:101BB000C3F810208DF803004FF4C850ADF80000B2
:101BC00003208DF802006946134800F029F84FF40D
:101BD000C851114800F003F904208DF803004FF4B8
:101BE0007040ADF8000001460C4800F0F8F81020F5
:101BF0008DF803000220ADF8000003208DF80200EC
:101C00006946064800F00CF80221044800F0E7F8A5
:101C100008BD000000081A0000080140000C014047
:101C20002DE9F04102460025002600200023002473
:101C3000002791F803C00CF00F0591F803C00CF0D9
:101C4000100CBCF1000F03D091F802C04CEA05055E
:101C500091F800C0BCF1000F31D0146800202BE0D7
:101C60004FF0010C0CFA00F3B1F800C00CEA0306C7
:101C70009E4220D183004FF00F0C0CFA03F7BC43B7
:101C800005FA03FC4CEA040491F803C0BCF1280FE8
:101C900006D14FF0010C0CFA00FCC2F814C00AE0A7
:101CA00091F803C0BCF1480F05D14FF0010C0CFABC
:101CB00000FCC2F810C0401C0828D1D31460B1F851
:101CC00000C0BCF1FF0F34DD546800202EE000F1AD
:101CD000080C4FF0010808FA0CF3B1F800C00CEA48
:101CE00003069E4221D183004FF00F0C0CFA03F73C
:101CF000BC4305FA03FC4CEA040491F803C0BCF1B0
:101D0000280F05D100F1080C08FA0CF8C2F814806D
:101D100091F803C0BCF1480F07D100F1080C4FF057
:101D2000010808FA0CF8C2F81080401C0828CED32D
:101D30005460BDE8F0810000F0B50A46002300249D
:101D40000021002500F00046B6F1004F02D11D4EE3
:101D5000F16901E01B4E7168C0F3034583B200F4E2
:101D60004016B6F5401F08D121F07061154E766817
:101D700026F07066134F7E6012E000F48016B6F510
:101D8000801F06D1032606FA05F4A14341F07061D5
:101D900006E0460D360103FA06F6B14341F07061E4
:101DA00022B1460D360103FA06F6314300F0004633
:101DB000B6F1004F02D1034EF16101E0014E7160B6
:101DC000F0BD0000000001400246002093680B4077
:101DD0000BB1012000E000207047416170470161B4
:101DE00070470AB1016100E04161704710B50446D7
:101DF0000723012221460948FFF714FB0121074868
:101E0000FFF771FB00BF02210448FFF7CFFA00285B
:101E1000F9D00248FFF7C6FA10BD000000240140C7
:101E20002DE9F04107460C460025002608E038461B
:101E3000FFF7DCFF0544052001F004FA701CC6B270
:101E4000A642F4DBB5FBF4F080B2BDE8F0810000FF
:101E50002DE9F0470A210720FFF7E2FF81464846B7
:101E600001F0B4FE824601F0B7FD06464FF066323F
:101E7000044B01F093FB044601F05AFA8046BDE89A
:101E8000F087000066664A3F00BFFEE7704738B53E
:101E900004460121206800F0FFFB0121606800F08A
:101EA000FBFB208A80B2ADF8000003208DF8020011
:101EB00010208DF803006946E068FFF7B1FEA08AA4
:101EC00080B2ADF8000003208DF8020010208DF8DC
:101ED00003006946A068FFF7A3FE228A91B2E0687A
:101EE000FFF77DFFA28A91B2A068FFF778FF38BDA7
:101EF00010B5012240210948FFF773FF012280211C
:101F00000648FFF76EFF002280210448FFF769FFB3
:101F1000002240210148FFF764FF10BD000C014082
:101F200010B5012240210748FFF75BFF0022802106
:101F30000448FFF756FF012280210248FFF751FFB6
:101F400010BD0000000C014010B5012240210448E2
:101F5000FFF747FF002240210148FFF742FF10BD75
:101F6000000C014070B505460C4645F2555000F096
:101F70002BF8042000F01CF8204600F01FF800F0B9
:101F80000FF800F001F870BD4CF6CC400149086034
:101F9000704700000030004010B500F001F810BD9F
:101FA0004AF6AA200149086070470000003000404E
:101FB00001494860704700000030004001498860D6
:101FC0007047000000300040014908607047000081
:101FD0000030004010B504464FF400413148FFF78F
:101FE000F3FE60B91E2001F02DF94FF400412D4899
:101FF000FFF7EAFE18B901202070002010BD4FF451
:1020000080512848FFF7E0FEA0B91E2001F01AF920
:102010004FF480512348FFF7D7FE58B900BF4FF463
:1020200080512048FFF7D0FE0028F8D00220207011
:102030000020E3E74FF400511A48FFF7C5FEA0B9AE
:102040001E2001F0FFF84FF400511648FFF7BCFEC8
:1020500058B900BF4FF400511248FFF7B5FE0028F1
:10206000F8D0032020700020C8E74FF480410D48CD
:10207000FFF7AAFEA0B91E2001F0E4F84FF480415A
:102080000848FFF7A1FE58B900BF4FF4804105484A
:10209000FFF79AFE0028F8D0042020700020ADE75A
:1020A0000120ABE7000C014070B505460C4625B198
:1020B000012D10D0022D2AD11BE034B900224FF49B
:1020C00080711448FFF78DFE04E0012211021148CF
:1020D000FFF787FE1BE034B900224FF400610D4882
:1020E000FFF77FFE04E00122D1020A48FFF779FEE4
:1020F0000DE034B900224FF480510648FFF771FE1D
:1021000004E0012211030348FFF76BFE00BF00BF8C
:1021100070BD00000008014000BFFEE7704710B529
:1021200000F05BF800F044F810BD000070B500212D
:1021300000230F22C47804B3154C246804F4E0642F
:10214000C4F5E064210AC1F10403CA40447804FAEA
:1021500003F184781440214309010E4C0678A155FF
:10216000047804F01F050124AC4005786D11AD0022
:1021700005F1E025C5F8004109E0047804F01F05E9
:102180000124AC40044D0678761145F8264070BD18
:102190000CED00E000E400E080E100E002490143D2
:1021A000024A1160704700000000FA050CED00E0E3
:1021B00008B54FF4C060FFF7F1FF1C208DF8000058
:1021C00001208DF8010002208DF8020001208DF819
:1021D00003006846FFF7AAFF08BD08B54FF4C060CA
:1021E000FFF7DCFF25208DF8000001208DF80300AB
:1021F0008DF801008DF802006846FFF797FF08BDD3
:1022000010B5012240213548FFF7EBFD0122802166
:102210003248FFF7E6FDC82001F014F80021AE2097
:1022200000F085F90021402000F081F90021B02064
:1022300000F07DF90021C82000F079F9002181200B
:1022400000F075F90021FF2000F071F90021A120B4
:1022500000F06DF90021A62000F069F90021A82006
:1022600000F065F900211F2000F061F90021D32062
:1022700000F05DF90021084600F059F90021D52051
:1022800000F055F90021F02000F051F90021D9208B
:1022900000F04DF90021222000F049F90021DA2058
:1022A00000F045F90021022000F041F90021DB2077
:1022B00000F03DF90021492000F039F900218D207E
:1022C00000F035F90021142000F031F90021AF2091
:1022D00000F02DF900F004F810BD0000000C0140E2
:1022E00070B5002418E004F1B000002100F01FF9DF
:1022F0000021084600F01BF90021102000F017F91A
:10230000002505E00121002000F011F9681CC5B28C
:10231000802DF7DB601CC4B2082CE4DB70BD70B507
:10232000022418E004F1B000002100F000F90021BF
:10233000084600F0FCF80021102000F0F8F8002515
:1023400005E00121002000F0F2F8681CC5B2802DE4
:10235000F7DB601CC4B2082CE4DB70BD2DE9F05F34
:1023600006460F4690461C46DDF828A04FF0000BAD
:10237000E11704EB5171C910A4EBC10131B920463A
:10238000E11704EB5171C1F3C70506E02046E117E0
:1023900004EB5171C910491CCDB23D4615E02946E8
:1023A000304600F016F8B1460BE059460BF1010B30
:1023B0001AF80100012100F0BAF809F1010000F05B
:1023C000FF09C145F1DB681CC5B2A542E7DBBDE8EA
:1023D000F09F70B504460D4605F1B000002100F0F5
:1023E000A6F8102141EA1410002100F0A0F804F032
:1023F0000F00002100F09BF870BD2DE9F0418046F0
:102400000F4615461E4639464046FFF7E2FF0024B8
:1024100007E006EB4511085D012100F088F8601C1B
:10242000C4B2102CF5DB781CC1B24046FFF7D1FFD7
:10243000002409E06900491C06EB0111085D012137
:1024400000F075F8601CC4B2102CF3DBBDE8F0811D
:102450002DE9F04707460E46904699460025002490
:10246000A8F12000C5B27F2F02DD0027B01CC6B244
:10247000B9F1100F24D131463846FFF7AAFF0024E6
:1024800008E004EB0511194A505C012100F04FF8F7
:10249000601CC4B2082CF4DB701CC1B23846FFF7D4
:1024A00098FF002409E004EB051108310F4A505C45
:1024B000012100F03CF8601CC4B2082CF3DB12E0F0
:1024C00031463846FFF785FF00240AE005EB450159
:1024D000074A02EB4101085D012100F028F8601C69
:1024E000C4B2062CF2DBBDE8F08700008240000891
:1024F0005A3E00082DE9F04104460F46154698461D
:1025000000260FE0AA5D434639462046FFF7A0FFAC
:1025100004F10800C4B2782C02DD0024B81CC7B254
:10252000701CC6B2A85D0028ECD1BDE8F08170B582
:1025300004460D461DB1E0B200F050FE02E0E0B2EC
:1025400000F036FE70BDFCB502462F2300BF002010
:102550008DF805008DF804008DF803008DF8020059
:1025600001208DF8010007208DF800002F230025A1
:102570000521002409E0581EC3B2072C02DA601CB2
:10258000C4B202E00024481EC1B2505C802727413B
:10259000384008B90029EEDCA3F10800C5B21EE0FE
:1025A000052118E0481E1DF8000000F0800018B159
:1025B000002901DD012600E000261DF8010040068B
:1025C000000E0DF801001DF801003044C0B20DF8F6
:1025D0000100481EC1B2FF29E4DB681EC5B2002D10
:1025E000DED1002106E0505C1DF8017078405054A7
:1025F000481CC1B20529F6DD082BA8DC1078FCBD0B
:10260000704710B501210D2000F046F80121880324
:1026100000F042F80121480200F03EF8012108468E
:1026200000F02AF80121022000F026F801210846D6
:1026300000F012F80121080700F01EF810BD00009C
:1026400001460020034A506820F44040084350608F
:10265000704700000010024029B1064A5269024347
:10266000044B5A6104E0034A52698243014B5A61A8
:10267000704700000010024029B1064AD2690243A7
:10268000044BDA6104E0034AD2698243014BDA6108
:10269000704700000010024029B1064A92690243C7
:1026A000044B9A6104E0034A92698243014B9A61A8
:1026B000704700000010024029B1064AD268024368
:1026C000044BDA6004E0034AD2688243014BDA60CB
:1026D000704700000010024030B5002100220024A5
:1026E00000232D4D6D6805F00C0121B1042905D0A2
:1026F000082923D105E0294D056022E0274D05601A
:102700001FE0254D6D6805F47012234D6D6805F4CA
:102710008034022505EB92421CB9214D55430560DA
:102720000BE01D4D6D6805F400351DB11C4D554382
:10273000056002E0194D5543056002E0174D056044
:1027400000BF00BF144D6D6805F0F0010909154D7B
:102750006B5C0568DD4045600F4D6D6805F4E06118
:10276000090A104D6B5C4568DD4085600A4D6D6857
:1027700005F46051C90A0B4D6B5C4568DD40C560CE
:10278000054D6D6805F44041890B074D6B5CC568CC
:10279000B5FBF3F5056130BD0010024000127A0070
:1027A00000093D001400002024000020002107E063
:1027B000002201E0531C9AB28242FBDB4B1C99B20F
:1027C0000429F5DB7047000008B54FF44060ADF810
:1027D000000003208DF8020014208DF803006946E4
:1027E0000648FFF71DFA012291020448FFF7F9FAA3
:1027F0000122D1020148FFF7F4FA08BD000C0140A4
:102800002DE9FC5F04460D464FF00009CA46CB4651
:102810006006040E00BF00BF00F00CF9ABF1010030
:1028200000F0FF0BBBF1000F00D135E000F0DCF849
:10283000204600F0BDF800B1EEE7284600F0B8F8F9
:1028400000B1E9E700F0D0F8601C00F0B1F800B189
:10285000E2E7002000F06CF88146002000F068F804
:102860008246012000F064F8804600F0E3F88DF81D
:1028700005408DF80450601CC0B28DF803008DF83F
:1028800002908DF801A000208DF800006846FFF747
:102890005AFE06464645BED100BF49EA0A273846D9
:1028A000BDE8FC9F2DE9F05F07210020FFF7A8FF9E
:1028B000834600F023FE8046084A094B00F06EFE76
:1028C00006464FF06632074B00F09CFF044600F0CE
:1028D0002FFD82465046BDE8F09F00007B14AE47B6
:1028E000E17A943F6612714010B50122D1020F487F
:1028F000FFF777FA012291020C48FFF772FA0220E3
:10290000FFF754FF4FF400610848FFF75DFA08B184
:10291000012400E0002400224FF480610348FFF707
:1029200060FA0420FFF742FF204610BD000C014072
:1029300070B5064608250DE0FFF7D6FF20B160060A
:10294000040E44F0010403E06006040E04F0FE04EB
:10295000681EC5B2002DEFD1304600F003F82046C6
:1029600070BD000010B5044634B900224FF4006178
:102970000E48FFF736FA04E00122D1020B48FFF7B8
:1029800030FA0220FFF712FF012291020748FFF7F9
:1029900028FA0A20FFF70AFF00224FF4806103485B
:1029A000FFF71FFA0A20FFF701FF10BD000C0140DE
:1029B0002DE9F041044608250EE004F0800008B13E
:1029C000012600E000263046FFF7CCFF4FF6FF70EF
:1029D00000EA4404681EC5B2002DEED1FFF784FF63
:1029E00007463846BDE8F08110B50122D1021048F3
:1029F000FFF7F7F90120FFF7D9FE012291020C48F9
:102A0000FFF7EFF90520FFF7D1FE00224FF4006138
:102A10000748FFF7E6F90A20FFF7C8FE00224FF447
:102A200080610348FFF7DDF90220FFF7BFFE10BD0C
:102A3000000C014010B500224FF480610E48FFF7F2
:102A4000D0F90520FFF7B2FE00224FF400610A48DA
:102A5000FFF7C7F90520FFF7A9FE012291020648FA
:102A6000FFF7BFF90A20FFF7A1FE0122D1020248B9
:102A7000FFF7B7F910BD0000000C0140704710B51A
:102A800000F002F810BD00000CB50020019000908D
:102A90003348006840F480303149086000BF304856
:102AA000006800F4003000900198401C01900098EC
:102AB00018B90198B0F5A06FF1D12948006800F469
:102AC000003010B10120009001E00020009000983B
:102AD000012843D12348006840F0100021490860D4
:102AE0000846006820F0030008600846006840F0CF
:102AF000020008601A484068194948600846406862
:102B000048600846406840F4806048600846406875
:102B100020F47C1048600846406840F4E8104860A3
:102B20000846006840F08070086000BF0C480068EC
:102B300000F000700028F9D00948406820F0030038
:102B4000074948600846406840F00200486000BFFE
:102B50000348406800F00C000828F9D10CBD0000C3
:102B6000001002400020024010B50248FFF78FF924
:102B700010BD000044040020042808D14FF0E021DB
:102B8000096941F004014FF0E022116107E04FF0C4
:102B9000E021096921F004014FF0E0221161704742
:102BA00010B500F0A1F910BD10B56FF00400FFF7EB
:102BB000E3FF0A4800680A49B0FBF1F009490870D0
:102BC0000846007800EB4001C1EBC0104FF6FF71E2
:102BD00001EAC0000449088010BD00000000002088
:102BE00000127A001C0400201E04002010B51348B7
:102BF000006840F00100114908600846406810492B
:102C000008400E494860084600680E4908400B49D4
:102C100008600846006820F4802008600846406884
:102C200020F4FE0048604FF41F008860FFF727FF84
:102C30004FF000600449086010BD00000010024021
:102C40000000FFF8FFFFF6FE08ED00E00EB540F2D1
:102C5000E730ADF804004720ADF800000020ADF8E3
:102C60000600ADF802008DF8080069464FF080407C
:102C700000F0E8F80121880700F080F801221146F1
:102C8000900700F08AF80121880700F07AF80EBD5D
:102C90004FF08040008A00F0010030B31748006810
:102CA000C0F38110012805D115480088401C144943
:102CB000088007E011480068C0F3811010B90020B7
:102CC0000F4908800D480068C0F30120012804D195
:102CD0000B484088401C0A49488008480068C0F3F7
:102CE000012010B90020064948804FF08040008A3A
:102CF00020F001004FF080410882704780040020DE
:102D00002004002000B589B00220ADF82000182072
:102D10008DF8230003208DF8220008A91548FEF73E
:102D20007FFF6320ADF8180040F2CF20ADF814000B
:102D30000020ADF81A00ADF816008DF81C0005A9AA
:102D40000D4800F07FF87020ADF804000120ADF8C8
:102D500006000020ADF80C0001A9074800F026F895
:102D60000821054800F060F80121034800F009F847
:102D700009B000BD000C014000040040CA430282BB
:102D8000704721B1028842F00102028004E002880B
:102D90004FF6FE731A40028070471AB183890B43C5
:102DA000838102E083898B438381704770B5002261
:102DB00000230024058C4EF6FF7635400584038CF5
:102DC0008488828B48F6FF752A404FF6FF452A40DB
:102DD0000D884FF6FF7606EA05252A434DF6FF7566
:102DE0002B400D8906EA05352B434D8806EA05354B
:102DF0002B430B4DA84202D00A4DA84208D14BF6F6
:102E0000FF752C408D894FF6FF7606EA85152C4319
:102E100084808283CD88A0F84050038470BD000078
:102E2000002C0140003401400A460021818B4FF202
:102E3000FF7319404FF6FF7303EA0223194381839E
:102E400070470000002202881D4B98420ED01D4B97
:102E500098420BD0B0F1804F08D01B4B984205D060
:102E60001A4B984202D01A4B984204D14FF68F73F6
:102E70001A404B881A43174B984207D0164B98427A
:102E800004D04FF6FF431A40CB881A4302808B8848
:102E900083850B8803850A4B98420BD0094B9842D7
:102EA00008D00E4B984205D00D4B984202D00D4BE6
:102EB000984201D10B7A0386012383827047000078
:102EC000002C014000340140000400400008004094
:102ED000000C004000100040001400400040014081
:102EE00000440140004801400448006820B1034804
:102EF0000068401E01490860704700001804002067
:102F000000B585B018208DF813004FF40070ADF8AF
:102F1000100001208DF8120004A91848FEF780FE69
:102F200004208DF813000002ADF8100001208DF888
:102F3000120004A91148FEF773FE4FF416500090DA
:102F40000020ADF80C000C20ADF80A000020ADF810
:102F50000800ADF80600ADF804006946084800F026
:102F60007FF80121064800F01FF8012240F22551A8
:102F7000034800F04FF805B000BD00000008014014
:102F80000038014010B540F22551064800F018F80D
:102F900038B1044800F0D0F8C4B22146014800F02E
:102FA000D0F810BD0038014021B1828942F40052AE
:102FB000828104E082894DF6FF731A408281704756
:102FC00070B50246002400230025002040F66A1652
:102FD000B14200D100BFC1F3421501F01F03012629
:102FE00006FA03F3012D02D19689334006E0022D43
:102FF00002D1168A334001E0968A33400C12012632
:1030000006FA04F41688344013B10CB1012000E034
:10301000002070BDF0B503460024002600250020E6
:1030200040F66A17B94200D100BF1846C1F34214F6
:1030300001F01F06012707FA06F5012C01D10C301B
:1030400004E0022C01D1103000E014301AB10768FE
:103050002F43076002E00768AF430760F0BD000040
:103060002DE9F04786B005460E460024A24600BF73
:10307000A1460027B08900B100BF2F462C8A4CF62C
:10308000FF700440F08804432C82AC894EF6F310A4
:103090000440B08831890843718908430443AC81F6
:1030A000AC8A4FF6FF400440B0890443AC8201A8CB
:1030B000FFF712FB1F48874202D1DDF810A001E0A4
:1030C000DDF80CA0A88900F4004040B10AEBCA006A
:1030D00000EB0A1031684900B0FBF1F807E00AEB99
:1030E000CA0000EB0A1031688900B0FBF1F86420D7
:1030F000B8FBF0F004012009642101FB1089A889C4
:1031000000F4004040B1322000EBC900B0FBF1F008
:1031100000F00700044308E0322000EB09106421AE
:10312000B0FBF1F000F00F0004432C8106B0BDE8C5
:10313000F08700000038014001468888C0F308008D
:103140007047C1F308028280704700BFFEE70000AD
:103150002DE9F04105462C46002240211348FEF798
:1031600040FE00261DE0274607F08007802F05D18E
:10317000012280210D48FEF734FE04E00022802168
:103180000A48FEF72EFE6006040E01224021074881
:10319000FEF727FE002240210448FEF722FE701CA5
:1031A000C6B2082EDFDBBDE8F0810000000C014054
:1031B00010B50446FEF79CFE7820FFF7C9FFFEF726
:1031C000C3FE0020FFF7C4FFFEF7BEFE2046FFF758
:1031D000BFFFFEF7B9FEFEF7A3FE10BD10B5044613
:1031E000FEF786FE7820FFF7B3FFFEF7ADFE402026
:1031F000FFF7AEFFFEF7A8FE2046FFF7A9FFFEF798
:10320000A3FEFEF78DFE10BD490050EAC12018BF95
:1032100004204A0D18BF40F0010040F2FF72B2EBEB
:10322000515F08BF40F00200012808BF0520704729
:1032300030380A2801D2012070470020704700BFB3
:10324000704700000146114A12884A434FF0E023BC
:103250005A6100229A611A46126942F001021A610B
:1032600000BF4FF0E022106900F001021AB100F433
:103270008032002AF5D04FF0E022126922F00102DC
:103280004FF0E0231A6100229A6170471E0400206B
:103290000146114A12784A434FF0E0235A61002256
:1032A0009A611A46126942F001021A6100BF4FF09A
:1032B000E022106900F001021AB100F48032002A05
:1032C000F5D04FF0E022126922F001024FF0E02326
:1032D0001A6100229A6170471C04002008B5FEF7AD
:1032E00063F9074808238022002100900846FFF771
:1032F00035F803E0FEF778F9FEF74EFEFAE7000036
:103300002800002010B500290AD00878002807D02E
:1033100005487844FDF7CAFB002801D0002010BD05
:103320000248784410BD0000161400000E1400007E
:1033300021F00042A2F16052B2F5801F01F000437B
:1033400028BFD2F17F6C0BD95FEA001C43EAC202AE
:1033500042EB507018BF704728BF20F00100704743
:10336000B2F5801FBCBF184670474FEA410C1CF5F0
:10337000001F02D2084600F038BD70B500F0B8F961
:1033800000000089FFF7F6BF4FF00040A0F5800075
:103390007047000010B591EA030F48BF83F0004367
:1033A00000F13882841A71EB030C05D2121943EB39
:1033B0000C03001B61EB0C01DFF824E14FEA115410
:1033C000A4EB135C1EEA430F18BF9EEA445F73D060
:1033D00023EA0E03DCF1200E21EA045143F48013AA
:1033E00032D322FA0CFE10EB0E0023FA0CFE41EB56
:1033F0000E01CCF1200E03FA0EFE10EB0E0051F17F
:103400000001B1F5801FCCF1200E32D201EB045146
:1034100012FA0EF2BDE8104058BF7047401C38BF8A
:103420005FEA420218BF7047002814BF20F0010075
:1034300041F100014FEA410313F5001F38BF704707
:10344000A1F1C04100F0A2B9012A43EB0302ACF1A3
:10345000200CDCF11F0E32BF4FF0000E23FA0CF3EC
:1034600010EB030041EB0451B4EB115FD0D0A1EBA2
:10347000045101F5801149085FEA300001EB045165
:103480000ED350F1000038BF12FA0EFE08D1BDE88D
:103490001040C9E7401C38BF5FEA4202CAD1C3E707
:1034A000BDE810404FEA410313F5001F38BF7047D5
:1034B000A1F1C04100F06AB99EEA445F08D011EA68
:1034C0005E0FBDE8104004BF01F0004100207047CE
:1034D000BDE8104070B500F00BF900BF64FBBE3EC4
:1034E0000000E0FF491058BFC1F140415B1058BFD8
:1034F000C3F140438B42EFF300807047B0FA80F392
:1035000010FA03F10AD0C3F11D0303F580634FEAFB
:1035100041504FEA035202EBD12170474FF00000B7
:103520007047000051EA030C17D41CF5801F58BFE8
:10353000BCF5801F00F10680994218BF704708BF94
:103540009042704707D711F5801F58BF13F5801FB1
:1035500019D499427047894270471CF5801F08D5DD
:10356000BCF5801FF7D58B4218BF704708BF824259
:1035700070474FF4001C1CEB410F38BF1CEB430F8E
:1035800001D28B42704770B500F0B2F89224490026
:103590004FF000514FF08053FFF7A4BFDFF848C150
:1035A00070B51CEA111E1EBF1CEA13159EEA0C0F13
:1035B00095EA0C0F00F06F8081EA030423EA4C13B4
:1035C0004EEAD47E21EA4C1141F4801143F4801379
:1035D000AE44A1FB024CA0FB0365AEF17F7E361921
:1035E00055EB0C05A1FB034C4CF10003A0FB021CA6
:1035F00016EB0C06654153F10003094218BF46F073
:10360000010613F4007F0BD14FEA03314FEA053076
:10361000340341EA155140EA16506FF003020AE004
:103620004FEAC3214FEAC520F40241EA555140EA6E
:1036300056506FF0020202EB2E4201EB025585EA72
:10364000CE710AD05FEA440C18BF24F0004450F158
:10365000000041F1000120EAD47040F2FE7C624596
:1036600000D270BDA84214BF4FF080444FF04044D8
:10367000002E08BF0024BEF1806FA8BFA1F1C04199
:10368000BDE8704080F282804FF0000001F1C0413F
:1036900001F0004170479EEA0C0F0CEA131518BFA9
:1036A00095EA0C0F06D04FF0000081EA030E0EF0F1
:1036B000004170BD00F01CF88900013E00F007B821
:1036C00000F009B84FEA430C5FEA5C5C08D081EA7D
:1036D000030100F05BB84FEA410C5FEA5C5CF6D195
:1036E0004FF00000014970470000FF070000F87F1D
:1036F0000EF1020E2EF0030E5EF8046B364205D476
:10370000012A43EB030515F5001F12D8012841EBF0
:10371000010C1CF5001F0CD80ED14FEAD17C15F519
:10372000001F0CEB4C0C0CF1020C08BF4CEBD37CD3
:1037300004E04FF0080C01E04FEAD37C0CEB4C05A1
:1037400026FA05F606F00706B6F1040C06D20EEBD3
:10375000860CBDE870404CF0010C6047DFE80CF0CF
:10376000090B02024FF000414FF00000A1F50021CB
:1037700070BD19461046012851EB010418BFD4F55D
:10378000001484BF002001F0004170BD0808A0F5BE
:1037900000114FEA3101704753EA010C17D41CF5B0
:1037A000801F58BFBCF5801F00F106808B4218BFF8
:1037B000704708BF8242704707D713F5801F58BF74
:1037C00011F5801F19D48B4270479B4270471CF53E
:1037D000801F08D5BCF5801FF7D5994218BF7047E8
:1037E00008BF904270474FF4001C1CEB430F38BFDA
:1037F0001CEB410F01D2994270470FB40CBC03BCC3
:10380000FFF7C1BE10B591EA030F48BF83F0004334
:103810003FF5C8AD841A71EB030C07D212198CF076
:10382000004C43EB0C03001B61EB0C01DFF8A4E13F
:103830004FEA1154A4EB135C1EEA430F18BF9EEA33
:10384000445F00F0B08023EA6E03524221EA045143
:10385000C3EB6E0338BF5B1EDCF1200E25D322FACA
:103860000CFE10EB0E0043FA0CFE41EB0E01CCF106
:10387000200E03FA0EFE10EB0E0051F10001CCF108
:10388000200E29D412FA0EF201EB0451BDE81040CB
:1038900058BF7047401C1CBFB2F1004F7047002852
:1038A0000CBF491C20F00100704712EB020E43EBE5
:1038B000030218BF4FF0010E4EEA4202ACF1200C99
:1038C000DCF11E0E54D943FA0CFE10EB0E0051F140
:1038D000FF31CCF11E0ED5D50EF1010E12FA0EFEFF
:1038E000404141EB010101EB445C5FEA5C5C10D9B3
:1038F00010EBDE7001EB045138BFBEF1004FBDE8A4
:10390000104018BF704700280CBF491C20F0010070
:10391000704730D24FEAD42C11F5001124F4006422
:103920001BD0B1FA81F20B3AA41AA41ED2F12003E3
:10393000914030FA03F31943904001EBCC71002C15
:1039400001EB0451BDE81040A8BF704701F1C04130
:103950004FF0000001F000417047B0FA80F310FA18
:1039600003F100D110BDE41A173C4805C90AE4E789
:1039700001EB045110BD491001EB0451BDE81040AA
:103980004FEA300002E04FF0000170474A0008BFE4
:103990000042F8D0B2F5001F28BF704701F0004187
:1039A0004FF0000070479EEA445F07D011EA5E0FB7
:1039B000BDE8104004BF002100207047BDE8104062
:1039C00070B5FFF795FE00BF40DFF63E83F0004183
:1039D000104670470000E0FF43004FEAD30C4FEA67
:1039E0003C0C43401FBF40070CF1605113F0FE4FE9
:1039F00070471CF0006F03D100200CF000417047AD
:103A00000CF0004343EA507010B540EACC0000F0DF
:103A1000A6F900BF000000924FEA0001FFF7B6BE12
:103A20004FF000414FF00000A1F500217047401019
:103A300058BFC0F14040491058BFC1F140418142D8
:103A4000EFF30080704700004FF47F0C1CEAD012A7
:103A50001EBF1CEAD11392EA0C0F93EA0C0F00F080
:103A6000858090EA010F48BF42F4807240F4000C58
:103A700041F400002CF07F4120F07F4000B58142EE
:103A8000A2EB03020FF2081CACEB504EC0F1000099
:103A90009EF800E04FEA4E0E00FB0EFC38BF4900D6
:103AA0004FEA2C1C02F5FA020CFB0EF34FEACE1E75
:103AB0004FEA112C4FEAC1210EEB635E42EB22422A
:103AC0000EFB0CFC4FEA1C5300FB03114FEA112CB8
:103AD0004FEA01310EFB0CFC4FEADC4C00FB0C11F1
:103AE000C14228BF09184CEB03335DF804EB10EB1F
:103AF000410143EBC250B2F57C0F38BF704729D566
:103B000012F0F00F1CBF00F1C04000F00040704701
:103B1000008182838485868788898B8C8D8E8F91A6
:103B20009293959697999A9C9D9FA0A2A3A5A7A8CA
:103B3000AAACAEB0B2B3B5B7B9BCBEC0C2C5C7C9F6
:103B4000CCCED1D4D7D9DCDFE2E6E9ECF0F3F7FA5A
:103B5000FE0000004FEA400C0CF1807CBCF17E4F6F
:103B600028BF7047B0F1C04000F03FB990EA010FA4
:103B70000CEAD11348BF42F48072624538BF6345F6
:103B800007D213F47F0F16D080EA010000F0004046
:103B9000704710B500F0E3F8097EFC3E00F005B870
:103BA00080EA010000F00040704780EA010000F068
:103BB000004000F01AB912F47F0F04BF02487047AA
:103BC00080EA010000F011B90000C07FB0FA80F374
:103BD00010FA03F2C3F19D030AD0D90501EB1220BC
:103BE000530638BF704700F1010008BF20F0010004
:103BF0007047000050EA010C00F113801CF5000F23
:103C000058BFBCF5000F01D48842704707D710F5A4
:103C1000000F58BF11F5000F15D488427047894234
:103C200070471CF5000F04D5BCF5000FF7D5814295
:103C300070474FF0807C1CEB400F38BF1CEB410FEE
:103C400001D28142704710B500F089F892244900F2
:103C50004FF000504FF08051FFF7E9BE4FF47F0C5A
:103C60001CEAD0121EBF1CEAD11392EA0C0F93EA91
:103C70000C0F00F0478090EA010F48BF42F48072B9
:103C80004FF0004C4CEA00204CEA012102EB030209
:103C9000A0FB0113A2F50002002918BF43F00103A5
:103CA0005B0028BF4FEA330342EB22425FEA132C4A
:103CB0004CEBC2502EBFBCEB436FB2F57C0F70478C
:103CC0004FEA036CBCF1004F08BF20F00100B2F5D1
:103CD0007C0F38BF70470BD582F0FF0212F5803F92
:103CE000C8BF704700F1C040D8BF00F00040704727
:103CF00000F5000C5FEA4C0C48BF7047B0F1C040C3
:103D000000F073B890EA010F0CEAD11348BF42F4F7
:103D10008072624538BF634504D280EA010000F03A
:103D20000040704710B500F01AF800BF8900013E4E
:103D300000F007B800F009B85FEA410C5FEA1C6CBC
:103D400008D080EA010000F050B85FEA400C5FEA5A
:103D50001C6CF6D14FF00040A0F5800070470EF1CA
:103D6000020E2EF0030E5EF8044B244204D44FEAF8
:103D70004102B2F17F4F11D84FEA4003B3F17F4FB8
:103D80000CD80ED14FEAD07CB2F17F4F0CEB4C0C2B
:103D90000CF1020C08BF4CEBD17C04E04FF0080C96
:103DA00001E04FEAD17C0CEB4C0324FA03F404F05D
:103DB0000704B4F1040C06D20EEB840CBDE81040ED
:103DC0004CF0010C6047DFE80CF0070802024FF0EE
:103DD0000040A0F5800010BD0846420018BFD2F197
:103DE000807288BF00F0004010BDFF2141EAD05032
:103DF000C005704751EA000C00F113801CF5000F5C
:103E000058BFBCF5000F01D48142704707D711F5A8
:103E1000000F58BF10F5000F15D48142704789423A
:103E200070471CF5000F04D5BCF5000FF7D588428C
:103E300070474FF0807C1CEB410F38BF1CEB400FEC
:103E400001D28842704780EA010081EA000180EADD
:103E50000100FFF7F8BEFCF7A6BB00000000000061
:103E60000000002F000000000700070000147F146E
:103E70007F1400242A7F2A1200626408132300366C
:103E80004955225000000503000000001C2241009B
:103E9000000041221C000014083E08140008083EDF
:103EA0000808000000A060000008080808080000DA
:103EB00060600000002010080402003E5149453EA9
:103EC0000000427F400000426151494600214145C7
:103ED0004B31001814127F10002745454539003C2E
:103EE0004A494930000171090503003649494936FC
:103EF00000064949291E00003636000000005636EB
:103F000000000008142241000014141414140000CE
:103F10004122140800020151090600324959513E5C
:103F2000007C1211127C007F49494936003E414114
:103F30004122007F4141221C007F49494941007FC5
:103F400009090901003E4149497A007F0808087FB4
:103F50000000417F4100002040413F01007F0814E4
:103F60002241007F40404040007F020C027F007FE2
:103F70000408107F003E4141413E007F09090906C7
:103F8000003E4151215E007F0919294600464949FA
:103F900049310001017F0101003F4040403F001FC7
:103FA0002040201F003F4038403F00631408146346
:103FB00000070870080700615149454300007F4130
:103FC000410000552A552A55000041417F00000458
:103FD0000201020400404040404000000102040091
:103FE000002054545478007F4844443800384444F6
:103FF000442000384444487F003854545418000882
:104000007E0901020018A4A4A47C007F080404789F
:104010000000447D4000004080847D00007F102827
:1040200044000000417F4000007C04180478007CBC
:104030000804047800384444443800FC242424183C
:104040000018242418FC007C080404080048545478
:10405000542000043F444020003C4040207C001C91
:104060002040201C003C4030403C004428102844A4
:10407000001CA0A0A07C004464544C4414141414EC
:104080001414000000000000000000000000000008
:104090000000000000F800000000000000333000C5
:1040A000000000100C06100C0600000000000000CC
:1040B000000040C07840C0784000043F04043F0442
:1040C0000400007088FC08300000001820FF211E4A
:1040D0000000F008F000E018000000211C031E2181
:1040E0001E0000F00888700000001E2123241927FC
:1040F000211010160E00000000000000000000005B
:104100000000000000E01804020000000007182072
:10411000400000020418E0000000004020180700E2
:104120000000404080F0804040000202010F010288
:104130000200000000F0000000000101011F010169
:104140000100000000000000000080B070000000CE
:10415000000000000000000000000001010101015A
:1041600001010000000000000000003030000000ED
:1041700000000000000080601804006018060100C4
:10418000000000E010080810E000000F10202010D0
:104190000F00001010F8000000000020203F202039
:1041A00000000070080808887000003028242221D0
:1041B0003000003008888848300000182020201186
:1041C0000E000000C02010F8000000070424243F67
:1041D000240000F808888808080000192120201110
:1041E0000E0000E0108888180000000F1120201138
:1041F0000E0000380808C83808000000003F000022
:1042000000000070880808887000001C222121220C
:104210001C0000E010080810E0000000312222110C
:104220000F00000000C0C00000000000003030009F
:10423000000000000080000000000000806000001E
:104240000000000080402010080000010204081057
:104250002000404040404040400004040404040466
:104260000400000810204080000000201008040214
:104270000100007048080808F00000000030360116
:104280000000C030C828E810E000071827242314D5
:104290000B000000C038E0000000203C2302022791
:1042A000382008F8888888700000203F20202011DE
:1042B0000E00C03008080808380007182020201019
:1042C000080008F808080810E000203F202020100F
:1042D0000F0008F88888E8081000203F20202320DD
:1042E000180008F88888E8081000203F2000030024
:1042F0000000C03008080838000007182020221EDF
:10430000020008F808000008F808203F21010121F8
:104310003F20000808F8080800000020203F202067
:10432000000000000808F8080800C08080807F00B6
:10433000000008F888C028180800203F200126380F
:10434000200008F8080000000000203F2020202066
:10435000300008F8F800F8F80800203F003F003F60
:10436000200008F830C00008F808203F2000071897
:104370003F00E01008080810E0000F102020201077
:104380000F0008F808080808F000203F210101018B
:104390000000E01008080810E0000F18242438502E
:1043A0004F0008F8888888887000203F2000030CA0
:1043B00030200070880808083800003820212122A9
:1043C0001C00180808F8080818000000203F20000A
:1043D000000008F808000008F808001F202020202E
:1043E0001F000878880000C83808000007380E0150
:1043F0000000F80800F80008F800033C0700073C3C
:104400000300081868808068180820302C03032CEB
:1044100030200838C800C83808000000203F2000BD
:10442000000010080808C83808002038262120207D
:104430001800000000FE020202000000007F404061
:104440004000000C30C000000000000000010638F1
:10445000C00000020202FE000000004040407F0059
:10446000000000000402020204000000000000003E
:10447000000000000000000000008080808080803C
:104480008080000202040000000000000000000024
:104490000000000080808080000000192422222279
:1044A0003F2008F8008080000000003F112020110C
:1044B0000E000000008080800000000E11202020EF
:1044C0001100000000808088F800000E11202010EC
:1044D0003F200000808080800000001F22222222D6
:1044E0001300008080F0888888180020203F20205A
:1044F00000000000808080808000006B9494949382
:10450000600008F8008080800000203F210000202B
:104510003F2000809898000000000020203F2020CD
:104520000000000000809898000000C08080807F1C
:10453000000008F8000080808000203F24022D3019
:104540002000000808F8000000000020203F202084
:1045500000008080808080808000203F20003F20FD
:10456000003F8080008080800000203F21000020EC
:104570003F200000808080800000001F202020203D
:104580001F00808000808000000080FFA12020119B
:104590000E000000008080808000000E112020A00E
:1045A000FF80808080008080800020203F212000CC
:1045B00001000000808080808000003324242424B7
:1045C0001900008080E0808000000000001F202093
:1045D00000008080000000808000001F202020104C
:1045E0003F20808080000080808000010E3008061F
:1045F000010080800080008080800F300C030C3030
:104600000F0000808000808080000020312E0E315D
:104610002000808080000080808080818E7018065D
:10462000010000808080808080000021302C2221C9
:10463000300000000000807C020200000000003F0B
:10464000404000000000FF00000000000000FF00EC
:1046500000000002027C800000000040403F00009B
:104660000000000601010202040400000000000036
:104670000000000002400000000000A00000000058
:1046800005400000000000C8000000000C400000D1
:104690000000409C00000000194000000020BCBE4B
:1046A0000000000034400000BFC91B8E0000000461
:1046B000B5400000504BCFD06607E2CF01000000AC
:1046C0006C4100003E8251AADFEEA73401000000D9
:1046D000D9420000DCB5A0E23A301F97FFFFFFFF90
:1046E000B4450000FD25A0C8E9A3C14FFFFFFFFFAF
:1046F000FF3F00000000008000000000FF3F0000BE
:104700000000008000000000444700080000002076
:10471000800400006C010008A44800088004002008
:1047200098060000C80100081C00000043000000BB
:10473000F8FFFFFF0C0000000E0000000F0000005B
:104740002E0000001184A24A046809010203040635
:104750000708090C691045020406084D808080C0D6
:10476000012AE0012A60014A400159181922390141
:10477000013C39415950195A01163B0406013D16B6
:104780001A1A1B011E4B4B6A6A6E0118092E3E3E17
:104790003E3F3F3F3B041B3F3F0C1B3EBC013810DC
:1047A000B8B0F0E8E84858D8D8989C9C3C3CFC014C
:1047B0001FFEF6F1E0E0C0A91A80CD1DF0F0F8F878
:1047C00014000E27F6BEBFBBABBB3D2D2D0D0D0457
:1047D00004180D0303030B1B1B1E1E5E6E6E7E6F03
:1047E0001B5EFE0118141E1E1E0F8F8F5F6F6F2F32
:1047F0002E3E7E7D7F7B7B7F5F0128185EDDDDDFC7
:104800005F5F7B7E7F3F7F7D3C2D2D2C0E0E07074B
:104810000303010119453E03070707050D0142394E
:104820004739568D07020202CA093B5D16060AFE89
:104830000AC612E012F062F84EFE7DBBC7EF01051A
:104840003EC7BB7DFE300D080CFEFE0C082060FE4E
:10485000FE60208F7848FE82BABA0309135E59E7DA
:10486000490101FF015D2809060909E6F80C040267
:104870000153041E2E071F30204001232010320850
:104880002904112C0C0140043240728013DF1D1BDF
:1048900008DB041AC904138D1E1408440433200CC9
:0448A0002908320DA4
:0400000508000131BD
:00000001FF
