:020000040800F2
:10000000C00E0020DD010008FD4F0008750C00083F
:10001000F94F00084307000877620008000000005D
:10002000000000000000000000000000635800080D
:10003000890800080000000091500008F501000840
:10004000F7010008F7010008F701000881540008D3
:10005000F7010008F70100088B080008F701000805
:100060008D0800088F08000891080008F7010008B3
:10007000F7010008F7010008F7010008F701000880
:10008000F7010008F7010008F7010008F701000870
:10009000F7010008F7010008F7010008F701000860
:1000A000F7010008F7010008F7010008F701000850
:1000B000155C0008F7010008F7010008F7010008C7
:1000C000F7010008F7010008F7010008F701000830
:1000D000F7010008B1600008F7010008F701000807
:1000E000F7010008F7010008F7010008F701000810
:1000F000F7010008F7010008F7010008F701000800
:10010000F7010008F7010008F7010008F7010008EF
:10011000F7010008F7010008F7010008F7010008DF
:10012000F7010008F7010008F7010008F7010008CF
:1001300000F002F800F042F80AA090E8000C8244B7
:100140008344AAF10107DA4501D100F037F8AFF294
:10015000090EBAE80F0013F0010F18BFFB1A43F0A5
:10016000010318474880000068800000103A24BF4F
:1001700078C878C1FAD8520724BF30C830C144BF0C
:1001800004680C607047000000230024002500264E
:10019000103A28BF78C1FBD8520728BF30C148BFEA
:1001A0000B607047642900F07B80782900F0B480F0
:1001B000002070471FB51FBD10B510BD00F064F9D9
:1001C0001146FFF7F7FF06F0A5F900F082F903B436
:1001D000FFF7F2FF03BC06F01FF900000948804753
:1001E00009480047FEE7FEE7FEE7FEE7FEE7FEE719
:1001F000FEE7FEE7FEE7FEE704480549054A064B31
:10020000704700007559000831010008C00800203F
:10021000C00E0020C00A0020C00A00207047000065
:100220000FB4044910B503AA029800F0FFF810BCFF
:100230005DF814FB2C0000202DE9F0410E46044629
:10024000002020622046E168884730B3252805D089
:10025000D4E901219047206A401CF2E7E16820467A
:1002600000278847050018D0A5F14100192802D8B9
:1002700020354FF400673246294620462760FFF7B5
:1002800091FF40B1012804D0F61D26F0070608367C
:10029000D8E7361DD6E72846DAE7206ABDE8F081C0
:1002A0002DE9F0410646002410687529314616A54F
:1002B00010D0AFF30080002802DA404213A507E017
:1002C00031688A0701D512A502E0490704D511A5B6
:1002D000012401E0AFF3008000210A2206F1240787
:1002E00009E0B0FBF2FCB0FBF2F302FB1C00303083
:1002F00078541846491C0028F3D123462A46304634
:10030000BDE8F04100F038B8000000002D0000000A
:100310002B0000002000000070B504460D46214669
:100320001068AFF300802188090502D50F4A7A448E
:1003300002E00E4A7A440E32002104F1240305E063
:1003400000F00F060009965D5E54491C0028F7D1A5
:1003500020780023000704D5702D02D009B10223B4
:1003600011322046BDE8704000F006B84F7E000014
:1003700070477047704770472DE9F0470D46994622
:100380009246044600F124080168880604D5E06915
:1003900021F01001216000E00120A84201DD471B8F
:1003A00000E00027A1697A1902EB0900081AA06190
:1003B0002078C00602D42046AFF30080002608E073
:1003C000D4E901211AF806009047206A401C761CE7
:1003D00020624E45F4DB2078C0060AD52046AFF3F4
:1003E000008006E0D4E9012130209047206A401CBB
:1003F0002062381EA7F10107F4DC07E0D4E90121EF
:1004000018F805009047206A401C2062281EA5F1BC
:100410000105F3DC2046AFF300802078000602D50A
:100420000220BDE8F0870120FBE70000074B70B514
:100430000D467B4400F011F80446284600F020F8F1
:1004400010B14FF0FF3070BD204670BDC36000009A
:1004500001694A1C02610878704700B58FB0CDE988
:1004600001310021059105497944CDE90310114678
:100470006846FFF7E1FE0FB000BD0000E5FFFFFF9B
:10048000007B00F080007047754600F02BF8AE4608
:1004900005006946534620F00700854618B020B590
:1004A000FFF7AAFEBDE820404FF000064FF000071E
:1004B0004FF000084FF0000B21F00701AC46ACE80C
:1004C000C009ACE8C009ACE8C009ACE8C0098D4679
:1004D000704710B50446AFF300802046BDE81040D9
:1004E000FFF775BE004870475C08002021B18268A4
:1004F00042F00102826003E0826822F00102826021
:100500007047000010B504461248844208D101210A
:10051000401504F0FBFD0021601504F0F7FD17E025
:100520000D48844208D10121001504F0EFFD00219F
:10053000201504F0EBFD0BE00848844208D10121AE
:10054000C80304F0E3FD00214FF4004004F0DEFD99
:1005500010BD00000024014000280140003C014083
:10056000014600208A6802F004020AB1012000E07E
:1005700000207047014600208A6802F008020AB194
:10058000012000E00020704730B502460020002323
:1005900050680F4C20400D790C6844EA0524204334
:1005A000506090680B4C2040D1E902542C434D79A7
:1005B00044EA450420439060D06A20F470000C7C2B
:1005C000641EE4B2234340EA0350D06230BD000011
:1005D000FFFEF0FFFDF7F1FF816841F00801816047
:1005E0007047816841F004018160704730B107496C
:1005F000096841F40001054A116005E003490968F2
:1006000021F40001014A11607047000008240140F4
:1006100010B500F031FB10BD10B500F003F800F08C
:1006200017F810BD08B50121042004F05FFD022079
:10063000ADF8000000208DF8030003208DF80200C3
:100640006946024800F03DFA08BD0000000801407C
:1006500000B585B00121480204F048FD4FF4004088
:1006600004F018FD1648FFF74DFF00208DF8050037
:1006700003904FF4602002900020009001208DF83C
:10068000100000208DF8040069460D48FFF77CFF3C
:1006900001210B48FFF72AFF0948FFF79DFF00BF24
:1006A0000748FFF767FF0028FAD10548FFF799FFD1
:1006B00000BF0348FFF754FF0028FAD105B000BD82
:1006C0000024014010B5012004F030FD002004F0AA
:1006D0002DFD10BD08B50146002000900348009094
:1006E0000098084400900098008808BD006C004005
:1006F00008B500220092044A0092009A0244009237
:10070000009A116008BD0000006C004010B504F0B4
:1007100047FC05F0B3FD00F09DF800F015F800F07F
:1007200068FA05F00BFE01F081F804F09FFF062047
:1007300005F060FC05F020FCFFF76EFFFFF768FF97
:1007400010BD00BFFEE7000008B50121442004F001
:10075000CDFC48208DF803001C20ADF800000320DC
:100760008DF802006946074800F0ABF928208DF8A3
:1007700003000120ADF800006946034800F0A1F92C
:1007800008BD0000001801400008014010B50446F3
:1007900014B101202C4908702B480078002837D06C
:1007A00010212A4800F018FA78B10821274800F0F3
:1007B00013FA50B10421254800F00EFA28B10121A6
:1007C000234800F009FA012822D10A2005F048FE4A
:1007D00000201D49087010211C4800F0FDF908B9DF
:1007E000012010BD0821194800F0F6F908B90220CF
:1007F000F7E70421154800F0EFF908B90320F0E706
:100800000121134800F0E8F901281BD10420E8E792
:1008100010210E4800F0E0F9012813D108210B48FF
:1008200000F0DAF901280DD10421084800F0D4F9CC
:10083000012807D10121064800F0CEF910B90120A6
:10084000014908700020CCE7380000200018014062
:100850000008014008B50121082004F047FC1020E1
:100860008DF803000001ADF8000003208DF80200B0
:100870006946044800F025F94FF48071014800F002
:10088000B4F908BD000C01407047704770477047CD
:100890007047000030B5044604254FF4302000F0C6
:1008A0006FF80546042D17D10C48006940F002008E
:1008B0000A49086108464461006940F04000086147
:1008C0004FF4302000F05CF805460448006941F61A
:1008D000FD71084001490861284630BD00200240F2
:1008E00004200B49C96801F0010109B101200EE0A3
:1008F0000749C96801F0040109B1022007E0044971
:10090000C96801F0100109B1032000E0042070471C
:10091000002002400348006940F08000014908615E
:10092000704700000020024070B504460D460426C2
:10093000F00200F025F80646042E11D1094800699E
:1009400040F00100074908612580F00200F018F826
:1009500006460448006941F6FE71084001490861F5
:10096000304670BD002002400248034948600348F9
:10097000486070472301674500200240AB89EFCDF6
:1009800000B502460423FFF7ABFF034603E0FFF781
:10099000A7FF0346521E012B01D1002AF7D102B94D
:1009A0000523184600BD000051B18200A2F1C042EB
:1009B000126842F001038200A2F1C042136009E014
:1009C0008200A2F1C0421268034B1A408300A3F1D7
:1009D000C0431A6070470000FEFF0F00D0E901120B
:1009E0001143C2681143026911434269114382698C
:1009F0001143C2691143026A1143426A1143826A78
:100A00001143C26A1143026B114302689200A2F1C2
:100A1000C0421160816808290BD101688900A1F1E9
:100A2000C041096841F0400201688900A1F1C0415C
:100A30000A60416B0968426B526841EA0211426BDD
:100A4000926841EA0221426B928941EA0241426B7B
:100A5000128A41EA0251426B127D41EA0261426B05
:100A6000926911430268521C9200A2F1C0421160C7
:100A7000C16AB1F5804F1BD1816B0968826B5268E6
:100A800041EA0211826B926841EA0221826B128A6A
:100A900041EA0251826B127D41EA0261826B9269E6
:100AA000114302689200A2F1C042C2F8041107E0AB
:100AB0006FF0704201688900A1F1C041C1F80421C2
:100AC00070472DE9F0410246002500260020002352
:100AD0000024002791F803C00CF00F0591F803C023
:100AE0000CF0100CBCF1000F03D091F802C04CEADE
:100AF000050591F800C0BCF1000F31D0146800204A
:100B00002BE04FF0010C0CFA00F3B1F800C00CEA36
:100B100003069E4220D183004FF00F0C0CFA03F71E
:100B2000BC4305FA03FC4CEA040491F803C0BCF191
:100B3000280F06D14FF0010C0CFA00FCC2F814C0CB
:100B40000AE091F803C0BCF1480F05D14FF0010C49
:100B50000CFA00FCC2F810C0401C0828D1D3146065
:100B6000B1F800C0BCF1FF0F34DD546800202EE066
:100B700000F1080C4FF0010808FA0CF3B1F800C0BE
:100B80000CEA03069E4221D183004FF00F0C0CFAB1
:100B900003F7BC4305FA03FC4CEA040491F803C0D4
:100BA000BCF1280F05D100F1080C08FA0CF8C2F8C6
:100BB000148091F803C0BCF1480F07D100F1080C74
:100BC0004FF0010808FA0CF8C2F81080401C082801
:100BD000CED35460BDE8F0810246002093680B40FC
:100BE0000BB1012000E000207047416170470161B6
:100BF000704710B500F029F800F001F810BD0EB5EF
:100C00000121084604F062FA40F2E730ADF8040032
:100C10004720ADF800000020ADF80600ADF8020056
:100C20008DF8080069464FF0804005F009F9012170
:100C3000880705F045F801221146900705F0C8F82D
:100C40000121880705F042F80EBD08B54FF4E060B9
:100C500004F00EFA1C208DF8000000208DF8010031
:100C600003208DF8020001208DF80300684604F08F
:100C7000C7F908BD00BFFEE708B50121082004F050
:100C800035FAC020ADF8000010208DF803000320D5
:100C90008DF8020069460448FFF713FFC02102489F
:100CA000FFF7A5FF08BD0000000C01400146CA1770
:100CB00001EB92729210A1EB820292B9642091FB37
:100CC000F0F200FB121050B94FF4C87091FBF0F233
:100CD00000FB121008B9012070470020FCE701203A
:100CE000FAE70020F8E7000070B504460026174830
:100CF0000588408845431548808846F604018842A7
:100D000016D112488079012812D100200F4988712C
:100D10002A2048812B2088810021084600F0CCFB46
:100D200001200A4988712B2048812A20888103E00C
:100D30000021084600F0C0FB00F066FD002602E03E
:100D400003480480761CAE42FAD370BD44000020F4
:100D50000008006C10B50446002C66D16C498871FF
:100D6000F02008804FF4A07048800846808849F23F
:100D7000413188420BD06648808846F6040188429B
:100D800005D06348808845F2103188421AD12C2062
:100D90005F4908812A2048812B2088810846808865
:100DA00046F60401884205D05948808845F2103142
:100DB000884206D14FF4A070554908804FF4F07076
:100DC0004880A1E05248808845F21051884210D1F5
:100DD0004FF430504E4908814FF4285048814FF469
:100DE0002C5088814FF4F07008804FF44870488090
:100DF0008AE04748808841F6631188420DD12C2053
:100E0000434908812B2048812A2088814FF4F070C3
:100E100008804FF44870488076E022203C490881E1
:100E200020204881212088816EE001203849887186
:100E30004FF4A0700880F02048800846808849F26E
:100E40004131884205D03248808845F210318842CD
:100E500007D12C202E4908812A2048812B20888107
:100E60003FE02B48808846F60401884207D12C20B9
:100E7000274908812B2048812A20888131E0244895
:100E8000808845F21051884210D14FF430502049EB
:100E900008814FF4285048814FF42C5088814FF43A
:100EA000487008804FF4F07048801AE01848808835
:100EB00041F6631188420DD12C20154908812A2062
:100EC00048812B2088814FF4487008804FF4F070DF
:100ED000488006E022200E490881212048812020F8
:100EE00088810B48808846F60401884205D008486E
:100EF000808845F21031884206D14FF4F0700449E1
:100F000008804FF4A0704880002000F05FF910BD09
:100F10004400002030B503460C4615465A488088E8
:100F200049F24131884205D05748808845F2103156
:100F3000884214D15449488900F060FC181200F02E
:100F400057FCD8B200F054FC4F49888900F056FC99
:100F5000201200F04DFCE0B200F04AFC8CE04A4860
:100F6000808845F21051884220D14749488900F0D5
:100F700045FC181200F03CFC43494989491C88B2E1
:100F800000F03CFCD8B200F033FC3F49888900F007
:100F900035FC201200F02CFC3B498989491C88B2A1
:100FA00000F02CFCE0B200F023FC65E036488088BD
:100FB00041F66311884228D13348807920B93248FC
:100FC0000088401EC01A83B22F49488900F016FCE1
:100FD000181200F00DFCD8B200F00AFC181200F054
:100FE00007FCD8B200F004FC2749888900F006FC11
:100FF000201200F0FDFBE0B200F0FAFB201200F03E
:10100000F7FBE0B200F0F4FB36E01F48808846F6BC
:10101000040188421DD11C488079012804D11A4856
:101020000088401EC01A83B21749488900F0E6FBC9
:10103000181200F0DDFBD8B200F0DAFB1249888903
:1010400000F0DCFB201200F0D3FBE0B200F0D0FB9C
:1010500012E00D488079012804D10B480088401E19
:10106000C01A83B208494889194600F0D7FB0649DF
:101070008889214600F0D2FB034800890349088093
:10108000881C058030BD000044000020FE07006C75
:101090002DE9FC4F05460E4617469846DDF82C9084
:1010A000002001902748808846F60401884229D113
:1010B00024488079012825D1AB463546214800884F
:1010C000C01B401E86B247461E480088A0EB0B009E
:1010D000401E1FFA80F800201A4988712A20488192
:1010E0002B20888143463A4631462846CDF8009069
:1010F000FFF7CEFF0120134988712B2048812A2059
:1011000088811CE0781B401C80B20190344614E0BA
:101110002146284600F0D0F900F076FB4FF0000A97
:1011200006E00948A0F800900AF101001FFA80FAD1
:1011300001988245F5DB601C84B24445E8DDBDE8DA
:10114000FC8F0000440000200008006C08B5034834
:1011500000880090BDF8000008BD00000008006C89
:1011600010B50446204600F049FB052005F09EF925
:10117000FFF7ECFF10BD00002DE9F0470446BE204C
:1011800000F03CFB052000F033FB204605F0F1FAAF
:1011900007464FF066320C4B05F0FEFA054605F0A7
:1011A000BBFA1FFA80F9484600F022FB012000F04C
:1011B0001FFBFF2000F01CFB002000F019FB0020AB
:1011C00000F016FBBDE8F0876666044070B5044683
:1011D00000230026B748807901280BD1B5488088C4
:1011E00046F60401884205D0B248808841F6631172
:1011F000884208D1AF488079F0B9AE48808841F67E
:101200006311884218D1082C15D2DFE804F00406D7
:10121000080A0C0E101206240DE007240BE004242B
:1012200009E0052407E0012405E0002403E003248D
:1012300001E0022400BF00BF9E48808849F241318E
:10124000884217D09B48808846F60401884211D016
:101250009848808845F2103188420BD095488088A4
:1012600045F21051884205D09248808841F66311BA
:1012700088427DD1082C1CD2DFE804F00406090C5A
:101280000F12151800BF14E043F0800311E043F083
:1012900040030EE043F0C0030BE043F0200308E0FE
:1012A00043F0600305E043F0A00302E043F0E003F5
:1012B00000BF00BF7F48808845F21051884202D1AC
:1012C0004FF4585600E036267A48808845F21031AF
:1012D00088420DD07748808845F21051884207D067
:1012E0007448808841F66311884201D043F00803B6
:1012F0007048808846F60401884201D143F0020319
:101300001946304600F08AFA6A48808841F663112F
:1013100088421DD003F0200068B166480088654906
:101320004988884214DA6348058840886149088002
:10133000084645800CE05F4800885E49498888423D
:1013400006DD5C48058840885A4908800846458083
:101350005848808845F21051884254D155494889EF
:1013600000F04CFA002000F043FA5249498900E0AD
:1013700078E0491C88B200F041FA002000F038FA09
:101380004C494989891C88B200F038FA49490988D2
:10139000491EC1F30F2000F02BFA46494989C91CA8
:1013A00088B200F02BFA43490978491EC8B200F010
:1013B0001FFA4049888900F021FA002000F018FA4D
:1013C0003C498989491C88B200F018FA002000F0D5
:1013D0000FFA38498989891C88B200F00FFA35491B
:1013E0004988491EC1F30F2000F002FA314989896A
:1013F000C91C88B200F002FA2E498978491EC8B289
:1014000000F0F6F955E02B49488900F0F7F9002083
:1014100000F0EEF9002000F0EBF926490988491E9A
:10142000C1F30F2000F0E4F922490978491EC8B23F
:1014300000F0DEF91F49888900F0E0F9002000F093
:10144000D7F9002000F0D4F91A494988491EC1F3A0
:101450000F2000F0CDF917498978491EC8B200F075
:10146000C7F926E0082C1CD2DFE804F004070A0DB7
:101470000F12151843F0300313E043F0100310E08F
:1014800043F020030DE000BF0BE043F0380308E019
:1014900043F0280305E043F0180302E043F008039B
:1014A00000BF00BF032643F480531946304600F0C6
:1014B000B5F970BD4400002010B503460C466748DE
:1014C000808849F24131884205D06448808845F2DD
:1014D0001031884214D16149488900F08FF91812FF
:1014E00000F086F9D8B200F083F95C49888900F0F1
:1014F00085F9201200F07CF9E0B200F079F9ABE058
:101500005648808846F6040188421DD153488079A8
:10151000012804D151480088401EC01A83B24F49A7
:10152000488900F06BF9181200F062F9D8B200F0A7
:101530005FF94A49888900F061F9201200F058F9F2
:10154000E0B200F055F987E04448808841F6631125
:10155000884247D141488079A8B940480088401E58
:10156000C01A83B23D49488900F048F9002000F0D4
:101570003FF9002000F03CF9181200F039F9D8B218
:1015800000F036F916E03549488900F037F91812AD
:1015900000F02EF9D8B200F02BF930490988491E25
:1015A000C1F30F2000F024F92C490978491EC8B274
:1015B00000F01EF92949888900F020F9201200F076
:1015C00017F9E0B200F014F924494988491EC1F323
:1015D0000F2000F00DF921498978491EC8B200F0AA
:1015E00007F939E01D48808845F21051884220D122
:1015F0001A49488900F002F9181200F0F9F8174961
:101600004989491C88B200F0F9F8D8B200F0F0F826
:101610001249888900F0F2F8201200F0E9F80F4929
:101620008989491C88B200F0E9F8E0B200F0E0F8DE
:1016300012E00A488079012804D108480088401E39
:10164000C01A83B205494889194600F0E7F80349F2
:101650008889214600F0E2F810BD00004400002017
:101660002DE9F84F80460E4617461C46B3462046E5
:10167000E31704EB5373DB1021464FEAE47C04EBE1
:101680005C7C4FEAEC0CA4EBCC0CBCF1000F02D05C
:101690004FF0010C01E04FF0000C6344224604EBD4
:1016A000D27C4FEA6C0C03FB0CF3DBB20093A7F186
:1016B0002000C7B2002556E00C2C07D107EB4700ED
:1016C0002B4901EB800010F8059013E0102C05D198
:1016D000284800EB071010F805900BE0182C07D1F4
:1016E00007EBC700244901EB800010F8059001E0EA
:1016F000BDE8F88F4FF0000A2FE009F0800030B10C
:101700001E48028831464046FFF704FC07E00A986D
:1017100028B91B48028831464046FFF7FBFB4FEAD9
:1017200049604FEA1069701C86B216484088B04282
:1017300000DCDDE7A6EB0B00A0420AD15E4608F113
:1017400001001FFA80F80F480088404500DCCFE711
:1017500006E00AF1010000F0FF0ABAF1080FCCDB45
:1017600000BF681CC5B200988542A5DB00BFBFE77B
:1017700094690008086E0008F87300083200002021
:1017800034000020440000202DE9F84704460D46AF
:1017900090469946DDE9096704F0FF0A08EB04006A
:1017A0001FFA80F809EB05001FFA80F916E044459E
:1017B00002DB5446A81985B24D4500DB14E0002039
:1017C00000903A78334629462046FFF749FF3046D5
:1017D00006EBD07104EB61018CB27F1C38787E2857
:1017E00002DC38782028E2DA00BFBDE8F887000084
:1017F00001490880704700000008006C014908801A
:1018000070470000FE07006C02480089024908800A
:101810007047000044000020FE07006C024A108060
:10182000921C118070470000FE07006C00B59FB04D
:101830000121080203F03AFC01214FF4B47003F0D7
:1018400055FC0120ADF8780010208DF87B000320B6
:101850008DF87A001EA9FE48FFF733F94CF2337079
:10186000ADF8780018208DF87B0003208DF87A0001
:101870001EA9F848FFF725F94FF68070ADF87800FB
:1018800018208DF87B0003208DF87A001EA9F248FD
:10189000FFF717F941F20100ADF8780018208DF834
:1018A0007B0003208DF87A001EA9EC48FFF709F9A8
:1018B00001200890002009900F200A9000200B9032
:1018C0000C900D900E900190029003200390002048
:1018D000049005900690079006200F90002010902D
:1018E00011901020129000201390159014901690D3
:1018F00017904FF480501890002019904FF48040BA
:101900001A9000201B9008A81C9001A81D900FA8F9
:10191000FFF764F801210620FFF746F8322004F0B3
:101920009FFD0020FFF71CFCCD4988800846808879
:10193000FF280ADB084680884FF6FF71884204D0F2
:10194000C7488088B0F5134F7ED1D320FFF756FFEC
:10195000FFF7FCFBC2498880FFF7F8FBC04988808D
:10196000FFF7F4FBBE498880084680884FF6FF7178
:1019700001EA0020BA498880FFF7E8FBB849898866
:101980000843B74988800846808849F24131884237
:101990005AD0BF20FFF732FFFFF7D8FBB04988804D
:1019A000FFF7D4FBAE498880FFF7D0FBAC498880B5
:1019B000FFF7CCFBAA498880084680884FF6FF7164
:1019C00001EA0020A6498880FFF7C0FBA449898866
:1019D0000843A34988800846808846F60401884267
:1019E0007AD0D420FFF70AFFFFF7B0FB9C4988802C
:1019F000FFF7ACFB9A498880FFF7A8FB98498880DD
:101A0000084680884FF6FF7101EA002094498880DB
:101A1000FFF79CFB924989880843914988800846D2
:101A2000808845F21031884256D04FF45A40FFF773
:101A3000E5FEFFF78BFB8A4988804FF45B40FFF798
:101A4000DDFEFFF783FB00E046E08549888008461D
:101A500080884FF6FF7101EA0020814988804FF4A9
:101A60005C40FFF7CBFEFFF771FB7D498988084397
:101A70007B49888008468088B0F5004F02D145F246
:101A8000105088807648808845F21051884223D0D3
:101A9000A120FFF7B3FEFFF759FB71498880FFF7DC
:101AA00055FB6F498880084680884FF6FF7101EA30
:101AB00000206B498880FFF749FB69498988084302
:101AC000674988800846808845F26171884203D161
:101AD00041F66310624988806148818861A0FEF701
:101AE0009FFB5F48808849F2413188427ED1CF20F8
:101AF000FFF784FE0020FFF77BFEC120FFF778FE92
:101B00003020FFF775FEED20FFF778FE6420FFF729
:101B10006FFE0320FFF76CFE1220FFF769FE8120A5
:101B2000FFF766FEE820FFF769FE8520FFF760FEFD
:101B30001020FFF75DFE7A20FFF75AFECB20FFF75B
:101B40005DFE3920FFF754FE2C20FFF751FE0020E8
:101B5000FFF74EFE3420FFF74BFE0220FFF748FE52
:101B6000F720FFF74BFE2020FFF742FEEA20FFF7A9
:101B700045FE0020FFF73CFE0020FFF739FEC020A5
:101B8000FFF73CFE1B20FFF733FEC120FFF736FEB8
:101B90000120FFF72DFEC520FFF730FE3020FFF7B4
:101BA00027FE3020FFF724FEC720FFF727FEB720CF
:101BB000FFF71EFE3620FFF721FE4820FFF718FE34
:101BC0003A20FFF71BFE5520FFF712FEB120FFF76A
:101BD00015FE0020FFF70CFE1A20FFF709FEB620C5
:101BE000FFF70CFE0A20FFF703FE00E0AAE0A220A8
:101BF000FFF7FEFDF220FFF701FE0020FFF7F8FDE2
:101C00002620FFF7FBFD0120FFF7F2FDE020FFF7A4
:101C1000F5FD0F20FFF7ECFD2A20FFF7E9FD282056
:101C2000FFF7E6FD0820FFF7E3FD0E20FFF7E0FDDC
:101C30000820FFF7DDFD5420FFF7DAFDA920FFF7AC
:101C4000D7FD4320FFF7D4FD0A20FFF7D1FD11E0B7
:101C5000000C014000140140001801400020014028
:101C600044000020204C43442049443A25780D0A82
:101C7000000000000F20FFF7BBFD0020FFF7B8FDBC
:101C80000020FFF7B5FD0020FFF7B2FD0020FFF7B1
:101C9000AFFDE120FFF7B2FD0020FFF7A9FD152001
:101CA000FFF7A6FD1720FFF7A3FD0720FFF7A0FD14
:101CB0001120FFF79DFD0620FFF79AFD2B20FFF76F
:101CC00097FD5620FFF794FD3C20FFF791FD05207E
:101CD000FFF78EFD1020FFF78BFD0F20FFF788FD2B
:101CE0003F20FFF785FD3F20FFF782FD0F20FFF724
:101CF0007FFD2B20FFF782FD0020FFF779FD0020FC
:101D0000FFF776FD0120FFF773FD3F20FFF770FD21
:101D10002A20FFF773FD0020FFF76AFD0020FFF780
:101D200067FD0020FFF764FDEF20FFF761FD112044
:101D3000FFF764FD782004F093FB2920FFF75EFD98
:101D400003F01DB9FE48808846F6040188427CD124
:101D50001120FFF753FD142004F082FBD020FFF781
:101D60004DFD0720FFF744FD4220FFF741FD1D20F8
:101D7000FFF73EFDD120FFF741FD0020FFF738FDC2
:101D80001A20FFF735FD0920FFF732FDD220FFF7BB
:101D900035FD0120FFF72CFD2220FFF729FDC02093
:101DA000FFF72CFD1020FFF723FD3B20FFF720FD60
:101DB0000020FFF71DFD0220FFF71AFD1120FFF79D
:101DC00017FDC520FFF71AFD0320FFF711FDC820FE
:101DD000FFF714FD0020FFF70BFD2520FFF708FD9E
:101DE0002120FFF705FD0520FFF702FD0020FFF78A
:101DF000FFFC0A20FFF7FCFC6520FFF7F9FC25201B
:101E0000FFF7F6FC7720FFF7F3FC5020FFF7F0FC1C
:101E10000F20FFF7EDFC0020FFF7EAFCF820FFF7AA
:101E2000EDFC0120FFF7E4FCFE20FFF7E7FC0020BB
:101E3000FFF7DEFC0220FFF7DBFC2020FFF7DEFCD3
:101E40003620FFF7DBFC082000E02CE0FFF7D0FC99
:101E50003A20FFF7D3FC5520FFF7CAFC2B20FFF7F1
:101E6000CDFC0020FFF7C4FC0020FFF7C1FC0120DF
:101E7000FFF7BEFC3F20FFF7BBFC2A20FFF7BEFCAC
:101E80000020FFF7B5FC0020FFF7B2FC0120FFF7B0
:101E9000AFFCDF20FFF7ACFC782004F0E1FA29204A
:101EA000FFF7ACFC4CE7A648808845F21031884229
:101EB00040F07C87ED20FFF7A1FC0120FFF798FCA4
:101EC000FE20FFF795FCEE20FFF798FCDE20FFF7E1
:101ED0008FFC2120FFF78CFCF120FFF78FFC012005
:101EE000FFF786FCDF20FFF789FC1020FFF780FC5E
:101EF000C420FFF783FC8F20FFF77AFCC620FFF792
:101F00007DFC0020FFF774FCE220FFF771FCE2206B
:101F1000FFF76EFCE220FFF76BFCBF20FFF76EFCC3
:101F2000AA20FFF765FCB020FFF768FC0D20FFF743
:101F30005FFC0020FFF75CFC0D20FFF759FC002040
:101F4000FFF756FC1120FFF753FC0020FFF750FC71
:101F50001920FFF74DFC0020FFF74AFC2120FFF776
:101F600047FC0020FFF744FC2D20FFF741FC002038
:101F7000FFF73EFC3D20FFF73BFC0020FFF738FC5D
:101F80005D20FFF735FC0020FFF732FC5D20FFF7F6
:101F90002FFC0020FFF72CFCB120FFF72FFC802046
:101FA000FFF726FC0020FFF723FC8B20FFF720FC27
:101FB0000020FFF71DFC9620FFF71AFC0020FFF71A
:101FC00017FCB220FFF71AFC0020FFF711FC0020DD
:101FD000FFF70EFC0220FFF70BFC0020FFF708FCC8
:101FE0000320FFF705FC0020FFF702FCB320FFF7FA
:101FF00005FC0020FFF7FCFB0020FFF7F9FB0020A9
:10200000FFF7F6FB0020FFF7F3FB0020FFF7F0FBE4
:102010000020FFF7EDFB0020FFF7EAFB0020FFF7B1
:10202000E7FB0020FFF7E4FB0020FFF7E1FB0020C7
:10203000FFF7DEFB0020FFF7DBFB0020FFF7D8FBFC
:102040000020FFF7D5FB0020FFF7D2FB0020FFF7B1
:10205000CFFB0020FFF7CCFB0020FFF7C9FB0020DF
:10206000FFF7C6FB0020FFF7C3FB0020FFF7C0FB14
:102070000020FFF7BDFB0020FFF7BAFB0020FFF7B1
:10208000B7FBB420FFF7BAFB8B20FFF7B1FB0020B2
:10209000FFF7AEFB9620FFF7ABFB0020FFF7A8FB96
:1020A000A120FFF7A5FB0020FFF7A2FBB520FFF75B
:1020B000A5FB0220FFF79CFB0020FFF799FB032004
:1020C000FFF796FB0020FFF793FB0420FFF790FB40
:1020D0000020FFF78DFBB620FFF790FB0020FFF7F5
:1020E00087FB0020FFF784FBB720FFF787FB00206A
:1020F000FFF77EFB0020FFF77BFB3F20FFF778FB1D
:102100000020FFF775FB5E20FFF772FB0020FFF752
:102110006FFB6420FFF76CFB0020FFF769FB8C204E
:10212000FFF766FB0020FFF763FBAC20FFF760FBC7
:102130000020FFF75DFBDC20FFF75AFB002001E0E9
:1021400044000020FFF754FB7020FFF751FB0020F4
:10215000FFF74EFB9020FFF74BFB0020FFF748FBFB
:10216000EB20FFF745FB0020FFF742FBDC20FFF7E9
:102170003FFB0020FFF73CFBB820FFF73FFB0020B0
:10218000FFF736FB0020FFF733FB0020FFF730FBA3
:102190000020FFF72DFB0020FFF72AFB0020FFF7B0
:1021A00027FB0020FFF724FB0020FFF721FBBA20CC
:1021B000FFF724FB2420FFF71BFB0020FFF718FB91
:1021C0000020FFF715FB0020FFF712FBC120FFF7EF
:1021D00015FB2020FFF70CFB0020FFF709FB542024
:1021E000FFF706FB0020FFF703FBFF20FFF700FBD4
:1021F0000020FFF7FDFAC220FFF700FB0A20FFF7DF
:10220000F7FA0020FFF7F4FA0420FFF7F1FA0020B4
:10221000FFF7EEFAC320FFF7F1FA3C20FFF7E8FAE8
:102220000020FFF7E5FA3A20FFF7E2FA0020FFF777
:10223000DFFA3920FFF7DCFA0020FFF7D9FA372060
:10224000FFF7D6FA0020FFF7D3FA3C20FFF7D0FAC9
:102250000020FFF7CDFA3620FFF7CAFA0020FFF77B
:10226000C7FA3220FFF7C4FA0020FFF7C1FA2F2087
:10227000FFF7BEFA0020FFF7BBFA2C20FFF7B8FAF1
:102280000020FFF7B5FA2920FFF7B2FA0020FFF788
:10229000AFFA2620FFF7ACFA0020FFF7A9FA2420B6
:1022A000FFF7A6FA0020FFF7A3FA2420FFF7A0FA11
:1022B0000020FFF79DFA2320FFF79AFA0020FFF78E
:1022C00097FA3C20FFF794FA0020FFF791FA3620A6
:1022D000FFF78EFA0020FFF78BFA3220FFF788FA1B
:1022E0000020FFF785FA2F20FFF782FA0020FFF782
:1022F0007FFA2C20FFF77CFA0020FFF779FA2920DB
:10230000FFF776FA0020FFF773FA2620FFF770FA3E
:102310000020FFF76DFA2420FFF76AFA0020FFF78C
:1023200067FA2420FFF764FA0020FFF761FA232000
:10233000FFF75EFA0020FFF75BFAC420FFF75EFAB2
:102340006220FFF755FA0020FFF752FA0520FFF749
:102350004FFA0020FFF74CFA8420FFF749FA0020DB
:10236000FFF746FAF020FFF743FA0020FFF740FAA4
:102370001820FFF73DFA0020FFF73AFAA420FFF7F4
:1023800037FA0020FFF734FA1820FFF731FA00205F
:10239000FFF72EFA5020FFF72BFA0020FFF728FA5C
:1023A0000C20FFF725FA0020FFF722FA1720FFF78D
:1023B0001FFA0020FFF71CFA9520FFF719FA0020FA
:1023C000FFF716FAF320FFF713FA0020FFF710FAD1
:1023D000E620FFF70DFA0020FFF70AFAC520FFF705
:1023E0000DFA3220FFF704FA0020FFF701FA44202B
:1023F000FFF7FEF90020FFF7FBF96520FFF7F8F97A
:102400000020FFF7F5F97620FFF7F2F90020FFF73B
:10241000EFF98820FFF7ECF90020FFF7E9F9C62073
:10242000FFF7ECF92020FFF7E3F90020FFF7E0F9D0
:102430001720FFF7DDF90020FFF7DAF90120FFF799
:10244000D7F90020FFF7D4F9C720FFF7D7F900200C
:10245000FFF7CEF90020FFF7CBF90020FFF7C8F90E
:102460000020FFF7C5F9C820FFF7C8F90020FFF7E3
:10247000BFF90020FFF7BCF90020FFF7B9F90020F1
:10248000FFF7B6F9C920FFF7B9F90020FFF7B0F957
:102490000020FFF7ADF90020FFF7AAF90020FFF7B1
:1024A000A7F90020FFF7A4F90020FFF7A1F9002009
:1024B000FFF79EF90020FFF79BF90020FFF798F93E
:1024C0000020FFF795F90020FFF792F90020FFF7B1
:1024D0008FF90020FFF78CF90020FFF789F9002021
:1024E000FFF786F90020FFF783F9E020FFF786F970
:1024F0001620FFF77DF90020FFF77AF91C20FFF77F
:1025000077F90020FFF774F92120FFF771F9002017
:10251000FFF76EF93620FFF76BF90020FFF768F937
:102520004620FFF765F90020FFF762F95220FFF718
:102530005FF90020FFF75CF96420FFF759F90020EC
:10254000FFF756F97A20FFF753F90020FFF750F90B
:102550008B20FFF74DF90020FFF74AF99920FFF78C
:1025600047F90020FFF744F9A820FFF741F90020C0
:10257000FFF73EF9B920FFF73BF90020FFF738F9E4
:10258000C420FFF735F90020FFF732F9CA20FFF722
:102590002FF90020FFF72CF9D220FFF729F90020AE
:1025A000FFF726F9D920FFF723F90020FFF720F9DC
:1025B000E020FFF71DF90020FFF71AF9F320FFF7DD
:1025C00017F90020FFF714F9E120FFF717F916209B
:1025D000FFF70EF90020FFF70BF91C20FFF708F9B1
:1025E0000020FFF705F92220FFF702F90020FFF78E
:1025F000FFF83620FFF7FCF80020FFF7F9F8452038
:10260000FFF7F6F80020FFF7F3F85220FFF7F0F895
:102610000020FFF7EDF86420FFF7EAF80020FFF74D
:10262000E7F87A20FFF7E4F80020FFF7E1F88B20C5
:10263000FFF7DEF80020FFF7DBF89920FFF7D8F866
:102640000020FFF7D5F8A820FFF7D2F80020FFF709
:10265000CFF8B920FFF7CCF80020FFF7C9F8C42065
:10266000FFF7C6F80020FFF7C3F8CA20FFF7C0F84D
:102670000020FFF7BDF8D220FFF7BAF80020FFF7DF
:10268000B7F8D820FFF7B4F80020FFF7B1F8E02042
:10269000FFF7AEF80020FFF7ABF8F320FFF7A8F83C
:1026A0000020FFF7A5F8E220FFF7A8F80520FFF7C4
:1026B0009FF80020FFF79CF80B20FFF799F8002007
:1026C000FFF796F81B20FFF793F80020FFF790F82C
:1026D0003420FFF78DF80020FFF78AF84420FFF739
:1026E00087F80020FFF784F84F20FFF781F80020DB
:1026F000FFF77EF86120FFF77BF80020FFF778F8FE
:102700007920FFF775F80020FFF772F88820FFF7AF
:102710006FF80020FFF76CF89720FFF769F80020AA
:10272000FFF766F8A620FFF763F80020FFF760F8D0
:10273000B720FFF75DF80020FFF75AF8C220FFF737
:1027400057F80020FFF754F8C720FFF751F8002092
:10275000FFF74EF8D120FFF74BF80020FFF748F8BD
:10276000D620FFF745F80020FFF742F8DD20FFF7FD
:102770003FF80020FFF73CF8F320FFF739F800207E
:10278000FFF736F8E320FFF739F80520FFF730F8B8
:102790000020FFF72DF80A20FFF72AF80020FFF7A6
:1027A00027F81C20FFF724F80020FFF721F833203A
:1027B000FFF71EF80020FFF71BF84420FFF718F87A
:1027C0000020FFF715F85020FFF712F80020FFF760
:1027D0000FF86220FFF70CF80020FFF709F87820C7
:1027E000FFF706F80020FFF703F88820FFF700F84E
:1027F0000020FEF7FDFF9720FEF7FAFF0020FEF70E
:10280000F7FFA620FEF7F4FF0020FEF7F1FFB72048
:10281000FEF7EEFF0020FEF7EBFFC220FEF7E8FF19
:102820000020FEF7E5FFC720FEF7E2FF0020FEF7DD
:10283000DFFFD120FEF7DCFF0020FEF7D9FFD52017
:10284000FEF7D6FF0020FEF7D3FFDD20FEF7D0FF16
:102850000020FEF7CDFFF320FEF7CAFF0020FEF7B1
:10286000C7FFE420FEF7CAFF0120FEF7C1FF0020EA
:10287000FEF7BEFF0120FEF7BBFF0020FEF7B8FF0A
:102880000220FEF7B5FF0020FEF7B2FF2A20FEF778
:10289000AFFF0020FEF7ACFF3C20FEF7A9FF0020B1
:1028A000FEF7A6FF4B20FEF7A3FF0020FEF7A0FFD8
:1028B0005D20FEF79DFF0020FEF79AFF7420FEF7D3
:1028C00097FF0020FEF794FF8420FEF791FF002081
:1028D000FEF78EFF9320FEF78BFF0020FEF788FFA8
:1028E000A220FEF785FF0020FEF782FFB320FEF74F
:1028F0007FFF0020FEF77CFFBE20FEF779FF00205F
:10290000FEF776FFC420FEF773FF0020FEF770FF8E
:10291000CD20FEF76DFF0020FEF76AFFD320FEF703
:1029200067FF0020FEF764FFDD20FEF761FF002057
:10293000FEF75EFFF320FEF75BFF0020FEF758FF77
:10294000E520FEF75BFF0020FEF752FF0020FEF7B8
:102950004FFF0020FEF74CFF0020FEF749FF02204A
:10296000FEF746FF0020FEF743FF2920FEF740FF59
:102970000020FEF73DFF3C20FEF73AFF0020FEF767
:1029800037FF4B20FEF734FF0020FEF731FF5D20BC
:10299000FEF72EFF0020FEF72BFF7420FEF728FF26
:1029A0000020FEF725FF8420FEF722FF0020FEF71F
:1029B0001FFF9320FEF71CFF0020FEF719FFA22047
:1029C000FEF716FF0020FEF713FFB320FEF710FFFF
:1029D0000020FEF70DFFBE20FEF70AFF0020FEF7E5
:1029E00007FFC420FEF704FF0020FEF701FFCD2003
:1029F000FEF7FEFE0020FEF7FBFED320FEF7F8FEFA
:102A00000020FEF7F5FEDC20FEF7F2FE0020FEF7C8
:102A1000EFFEF320FEF7ECFE0020FEF7E9FEE620D5
:102A2000FEF7ECFE1120FEF7E3FE0020FEF7E0FECD
:102A30003420FEF7DDFE0020FEF7DAFE5620FEF71A
:102A4000D7FE0020FEF7D4FE7620FEF7D1FE002050
:102A5000FEF7CEFE7720FEF7CBFE0020FEF7C8FE85
:102A60006620FEF7C5FE0020FEF7C2FE8820FEF7B6
:102A7000BFFE0020FEF7BCFE9920FEF7B9FE002045
:102A8000FEF7B6FEBB20FEF7B3FE0020FEF7B0FE59
:102A90009920FEF7ADFE0020FEF7AAFE6620FEF7A5
:102AA000A7FE0020FEF7A4FE5520FEF7A1FE0020A1
:102AB000FEF79EFE5520FEF79BFE0020FEF798FED7
:102AC0004520FEF795FE0020FEF792FE4320FEF71C
:102AD0008FFE0020FEF78CFE4420FEF789FE0020CA
:102AE000FEF786FEE720FEF789FE3220FEF780FE25
:102AF0000020FEF77DFE5520FEF77AFE0020FEF74F
:102B000077FE7620FEF774FE0020FEF771FE662049
:102B1000FEF76EFE0020FEF76BFE6720FEF768FEF4
:102B20000020FEF765FE6720FEF762FE0020FEF73C
:102B30005FFE8720FEF75CFE0020FEF759FE99201D
:102B4000FEF756FE0020FEF753FEBB20FEF750FEB8
:102B50000020FEF74DFE9920FEF74AFE0020FEF70A
:102B600047FE7720FEF744FE0020FEF741FE44209A
:102B7000FEF73EFE0020FEF73BFE5620FEF738FE35
:102B80000020FEF735FE2320FEF732FE0020FEF780
:102B90002FFE3320FEF72CFE0020FEF729FE4520F5
:102BA000FEF726FE0020FEF723FEE820FEF726FEB5
:102BB0000020FEF71DFE0020FEF71AFE9920FEF70A
:102BC00017FE0020FEF714FE8720FEF711FE0020FE
:102BD000FEF70EFE8820FEF70BFE0020FEF708FE33
:102BE0007720FEF705FE0020FEF702FE6620FEF7C6
:102BF000FFFD0020FEF7FCFD8820FEF7F9FD002018
:102C0000FEF7F6FDAA20FEF7F3FD0020FEF7F0FD2B
:102C1000BB20FEF7EDFD0020FEF7EAFD9920FEF750
:102C2000E7FD0020FEF7E4FD6620FEF7E1FD002051
:102C3000FEF7DEFD5520FEF7DBFD0020FEF7D8FD98
:102C40005520FEF7D5FD0020FEF7D2FD4420FEF70B
:102C5000CFFD0020FEF7CCFD4420FEF7C9FD00208B
:102C6000FEF7C6FD5520FEF7C3FD0020FEF7C0FDB0
:102C7000E920FEF7C3FDAA20FEF7BAFD0020FEF70B
:102C8000B7FD0020FEF7B4FD0020FEF7B1FD0020E7
:102C9000FEF7B4FDAA20FEF7ABFDCF20FEF7AEFD98
:102CA0000020FEF7A5FD0020FEF7A2FD0020FEF7A4
:102CB0009FFD0020FEF79CFD0020FEF799FD0020FF
:102CC000FEF796FD0020FEF793FD0020FEF790FD35
:102CD0000020FEF78DFD0020FEF78AFD0020FEF7A4
:102CE00087FD0020FEF784FD0020FEF781FD002017
:102CF000FEF77EFD0020FEF77BFD0020FEF778FD4D
:102D00000020FEF775FDF020FEF778FD0020FEF7AD
:102D10006FFD5020FEF76CFD0020FEF769FD0020DE
:102D2000FEF766FD0020FEF763FDF320FEF766FD6B
:102D30000020FEF75DFDF920FEF760FD0620FEF79E
:102D400057FD1020FEF754FD2920FEF751FD00200D
:102D5000FEF74EFD3A20FEF751FD5520FEF748FDE7
:102D60001120FEF74BFD642003F07AFB2920FEF7CB
:102D700045FD3520FEF742FD0020FEF739FD5120CC
:102D8000FEF73CFDFF20FEF733FD5320FEF736FD36
:102D90002C20FEF72DFD5520FEF730FD8220FEF79A
:102DA00027FD2C20FEF72AFD02F0E9B8FE488088B6
:102DB00045F2105188427DD155214FF47040FEF705
:102DC0002DFDAA214FF20100FEF728FD52214FF2FE
:102DD0000200FEF723FD08214FF20300FEF71EFD5F
:102DE00001214FF20400FEF719FD0D214FF4304090
:102DF000FEF714FD0D214BF20100FEF70FFD0D2132
:102E00004BF20200FEF70AFD34214FF43640FEF784
:102E100005FD34214BF20160FEF700FD34214BF239
:102E20000260FEF7FBFC0D214FF43140FEF7F6FC8B
:102E30000D214BF20110FEF7F1FC0D214BF20210B7
:102E4000FEF7ECFC34214FF43740FEF7E7FC342169
:102E50004BF20170FEF7E2FC34214BF20270FEF7F8
:102E6000DDFC00214FF43240FEF7D8FC00214BF28C
:102E70000120FEF7D3FC00214BF20220FEF7CEFC2E
:102E800024214FF43840FEF7C9FC24214BF6010001
:102E9000FEF7C4FC24214BF60200FEF7BFFC012123
:102EA0004FF43F40FEF7BAFC0F214FF43340FEF7DA
:102EB000B5FC00E0FDE30F214BF20130FEF7AEFC64
:102EC0000F214BF20230FEF7A9FC34214FF43940B8
:102ED000FEF7A4FC34214BF60110FEF79FFC3421D1
:102EE0004BF60210FEF79AFC08214FF43540FEF72E
:102EF00095FC08214BF20150FEF790FC08214BF2A3
:102F00000250FEF78BFC03214FF44240FEF786FC93
:102F100024214FF43A40FEF781FC24214BF6012096
:102F2000FEF77CFC24214BF60220FEF777FC002103
:102F30004FF43C40FEF772FC78214BF60140FEF75F
:102F40006DFC00214BF60240FEF768FC00214FF4B7
:102F50003D40FEF763FC78214BF60150FEF75EFC26
:102F600000214BF60250FEF759FC00214FF43E4081
:102F7000FEF754FC64214BF60160FEF74FFC002184
:102F80004FF45140FEF74AFC33214DF20110FEF799
:102F900045FC00214DF20210FEF740FC34214DF2B9
:102FA0000310FEF73BFC00214DF20410FEF736FC47
:102FB0003A214DF20510FEF731FC00214DF20610CA
:102FC000FEF72CFC4A214DF20710FEF727FC0021EA
:102FD0004DF20810FEF722FC5C214DF20910FEF7BD
:102FE0001DFC00214DF20A10FEF718FC81214DF264
:102FF0000B10FEF713FC00214DF20C10FEF70EFC37
:10300000A6214DF20D10FEF709FC00214DF20E1025
:10301000FEF704FCE5214DF20F10FEF7FFFB012146
:103020004DF21010FEF7FAFB13214DF21110FEF7CE
:10303000F5FB01214DF21210FEF7F0FB54214DF289
:103040001310FEF7EBFB01214DF21410FEF7E6FB27
:1030500082214DF21510FEF7E1FB01214DF2161011
:10306000FEF7DCFBCA214DF21710FEF7D7FB022159
:103070004DF21810FEF7D2FB00214DF21910FEF7A9
:10308000CDFB02214DF21A10FEF7C8FB01214DF2D3
:103090001B10FEF7C3FB02214DF21C10FEF7BEFB16
:1030A00034214DF21D10FEF7B9FB02214DF21E1026
:1030B000FEF7B4FB67214DF21F10FEF7AFFB0221B4
:1030C0004DF22010FEF7AAFB84214DF22110FEF7ED
:1030D000A5FB02214DF22210FEF7A0FBA4214DF228
:1030E0002310FEF79BFB02214DF22410FEF796FB06
:1030F000B7214DF22510FEF791FB02214DF226106B
:10310000FEF78CFBCF214DF22710FEF787FB022143
:103110004DF22810FEF782FBDE214DF22910FEF75A
:103120007DFB02214DF22A10FEF778FBF2214DF2D1
:103130002B10FEF773FB02214DF22C10FEF76EFBF5
:10314000FE214DF22D10FEF769FB03214DF22E10EA
:10315000FEF764FB10214DF22F10FEF75FFB0321F9
:103160004DF23010FEF75AFB33214DF23110FEF7CD
:1031700055FB03214DF23210FEF750FB6D214DF24D
:103180003310FEF74BFB00214FF45240FEF746FB95
:1031900033214DF20120FEF741FB00214DF20220C8
:1031A000FEF73CFB342101E0440000204DF20320F7
:1031B000FEF734FB00214DF20420FEF72FFB3A21ED
:1031C0004DF20520FEF72AFB00214DF20620FEF706
:1031D00025FB4A214DF20720FEF720FB00214DF28E
:1031E0000820FEF71BFB5C214DF20920FEF716FBC1
:1031F00000214DF20A20FEF711FB81214DF20B2038
:10320000FEF70CFB00214DF20C20FEF707FBA62178
:103210004DF20D20FEF702FB00214DF20E20FEF7CD
:10322000FDFAE5214DF20F20FEF7F8FA01214DF2EB
:103230001020FEF7F3FA13214DF21120FEF7EEFAFB
:1032400001214DF21220FEF7E9FA54214DF213202C
:10325000FEF7E4FA01214DF21420FEF7DFFA822195
:103260004DF21520FEF7DAFA01214DF21620FEF795
:10327000D5FACA214DF21720FEF7D0FA02214DF2FD
:103280001820FEF7CBFA00214DF21920FEF7C6FAFE
:1032900002214DF21A20FEF7C1FA01214DF21B2046
:1032A000FEF7BCFA02214DF21C20FEF7B7FA3421DA
:1032B0004DF21D20FEF7B2FA02214DF21E20FEF75C
:1032C000ADFA67214DF21F20FEF7A8FA02214DF258
:1032D0002020FEF7A3FA84214DF22120FEF79EFA6A
:1032E00002214DF22220FEF799FAA4214DF223206B
:1032F000FEF794FA02214DF22420FEF78FFAB7214F
:103300004DF22520FEF78AFA02214DF22620FEF723
:1033100085FACF214DF22720FEF780FA02214DF2E7
:103320002820FEF77BFADE214DF22920FEF776FAFF
:1033300002214DF22A20FEF771FAF2214DF22B20E4
:10334000FEF76CFA02214DF22C20FEF767FAFE21FF
:103350004DF22D20FEF762FA03214DF22E20FEF7EA
:103360005DFA10214DF22F20FEF758FA03214DF29D
:103370003020FEF753FA33214DF23120FEF74EFA9A
:1033800003214DF23220FEF749FA6D214DF2332030
:10339000FEF744FA00214FF45340FEF73FFA332181
:1033A0004DF20130FEF73AFA00214DF20230FEF7FD
:1033B00035FA34214DF20330FEF730FA00214DF298
:1033C0000430FEF72BFA3A214DF20530FEF726FACB
:1033D00000214DF20630FEF721FA4A214DF2073066
:1033E000FEF71CFA00214DF20830FEF717FA5C21B7
:1033F0004DF20930FEF712FA00214DF20A30FEF7C5
:103400000DFA81214DF20B30FEF708FA00214DF242
:103410000C30FEF703FAA6214DF20D30FEF7FEF94F
:1034200000214DF20E30FEF7F9F9E5214DF20F3093
:10343000FEF7F4F901214DF21030FEF7EFF91321F8
:103440004DF21130FEF7EAF901214DF21230FEF78C
:10345000E5F954214DF21330FEF7E0F901214DF268
:103460001430FEF7DBF982214DF21530FEF7D6F964
:1034700001214DF21630FEF7D1F9CA214DF2173075
:10348000FEF7CCF902214DF21830FEF7C7F9002102
:103490004DF21930FEF7C2F902214DF21A30FEF753
:1034A000BDF901214DF21B30FEF7B8F902214DF2B2
:1034B0001C30FEF7B3F934214DF21D30FEF7AEF9A2
:1034C00002214DF21E30FEF7A9F967214DF21F309F
:1034D000FEF7A4F902214DF22030FEF79FF9842176
:1034E0004DF22130FEF79AF902214DF22230FEF71B
:1034F00095F9A4214DF22330FEF790F902214DF207
:103500002430FEF78BF9B7214DF22530FEF786F90E
:1035100002214DF22630FEF781F9CF214DF22730FE
:10352000FEF77CF902214DF22830FEF777F9DE2113
:103530004DF22930FEF772F902214DF22A30FEF7E2
:103540006DF9F2214DF22B30FEF768F902214DF2B0
:103550002C30FEF763F9FE214DF22D30FEF75EF9B7
:1035600003214DF22E30FEF759F910214DF22F3084
:10357000FEF754F903214DF23030FEF74FF93321B5
:103580004DF23130FEF74AF903214DF23230FEF7A9
:1035900045F96D214DF23330FEF740F900214FF42B
:1035A0005440FEF73BF933214DF20140FEF736F966
:1035B00000214DF20240FEF731F934214DF2034073
:1035C000FEF72CF900214DF20440FEF727F93A21CD
:1035D0004DF20540FEF722F900214DF20640FEF7BC
:1035E0001DF94A214DF20740FEF718F900214DF26E
:1035F0000840FEF713F95C214DF20940FEF70EF981
:1036000000214DF20A40FEF709F981214DF20B40ED
:10361000FEF704F900214DF20C40FEF7FFF8A62159
:103620004DF20D40FEF7FAF800214DF20E40FEF784
:10363000F5F8E5214DF20F40FEF7F0F801214DF2CB
:103640001040FEF7EBF813214DF21140FEF7E6F8BB
:1036500001214DF21240FEF7E1F854214DF21340E2
:10366000FEF7DCF801214DF21440FEF7D7F8822175
:103670004DF21540FEF7D2F801214DF21640FEF74B
:10368000CDF8CA214DF21740FEF7C8F802214DF2DD
:103690001840FEF7C3F800214DF21940FEF7BEF8BE
:1036A00002214DF21A40FEF7B9F801214DF21B40FC
:1036B00000E006E3FEF7B2F802214DF21C40FEF7EF
:1036C000ADF834214DF21D40FEF7A8F802214DF26D
:1036D0001E40FEF7A3F867214DF21F40FEF79EF84B
:1036E00002214DF22040FEF799F884214DF221404D
:1036F000FEF794F802214DF22240FEF78FF8A42144
:103700004DF22340FEF78AF802214DF22440FEF7E5
:1037100085F8B7214DF22540FEF780F802214DF2E1
:103720002640FEF77BF8CF214DF22740FEF776F8D2
:1037300002214DF22840FEF771F8DE214DF22940BA
:10374000FEF76CF802214DF22A40FEF767F8F221ED
:103750004DF22B40FEF762F802214DF22C40FEF7AD
:103760005DF8FE214DF22D40FEF758F803214DF291
:103770002E40FEF753F810214DF22F40FEF74EF881
:1037800003214DF23040FEF749F833214DF231402C
:10379000FEF744F803214DF23240FEF73FF86D2169
:1037A0004DF23340FEF73AF800214FF45540FEF752
:1037B00035F833214DF20150FEF730F800214DF27B
:1037C0000250FEF72BF834214DF20350FEF726F895
:1037D00000214DF20450FEF721F83A214DF2055038
:1037E000FEF71CF800214DF20650FEF717F84A21AB
:1037F0004DF20750FEF712F800214DF20850FEF787
:103800000DF85C214DF20950FEF708F800214DF249
:103810000A50FEF703F881214DF20B50FDF7FEFF31
:1038200000214DF20C50FDF7F9FFA6214DF20D508D
:10383000FDF7F4FF00214DF20E50FDF7EFFFE521FB
:103840004DF20F50FDF7EAFF01214DF21050FDF748
:10385000E5FF13214DF21150FDF7E0FF01214DF27C
:103860001250FDF7DBFF54214DF21350FDF7D6FF48
:1038700001214DF21450FDF7D1FF82214DF2155078
:10388000FDF7CCFF01214DF21650FDF7C7FFCA210D
:103890004DF21750FDF7C2FF02214DF21850FDF70F
:1038A000BDFF00214DF21950FDF7B8FF02214DF286
:1038B0001A50FDF7B3FF01214DF21B50FDF7AEFF8B
:1038C00002214DF21C50FDF7A9FF34214DF21D508D
:1038D000FDF7A4FF02214DF21E50FDF79FFF672167
:1038E0004DF21F50FDF79AFF02214DF22050FDF7D7
:1038F00095FF84214DF22150FDF790FF02214DF2FA
:103900002250FDF78BFFA4214DF22350FDF786FFD7
:1039100002214DF22450FDF781FFB7214DF22550D1
:10392000FDF77CFF02214DF22650FDF777FFCF21F6
:103930004DF22750FDF772FF02214DF22850FDF79E
:103940006DFFDE214DF22950FDF768FF02214DF297
:103950002A50FDF763FFF2214DF22B50FDF75EFF79
:1039600002214DF22C50FDF759FFFE214DF22D5052
:10397000FDF754FF03214DF22E50FDF74FFF1021AC
:103980004DF22F50FDF74AFF03214DF23050FDF765
:1039900045FF33214DF23150FDF740FF03214DF239
:1039A0003250FDF73BFF6D214DF23350FDF736FFEE
:1039B00000214FF45640FDF731FF33214DF20160F5
:1039C000FDF72CFF00214DF20260FDF727FF3421A7
:1039D0004DF20360FDF722FF00214DF20460FDF778
:1039E0001DFF3A214DF20560FDF718FF00214DF251
:1039F0000660FDF713FF4A214DF20760FDF70EFF49
:103A000000214DF20860FDF709FF5C214DF20960CD
:103A1000FDF704FF00214DF20A60FDF7FFFE812152
:103A20004DF20B60FDF7FAFE00214DF20C60FDF740
:103A3000F5FEA6214DF20D60FDF7F0FE00214DF2DE
:103A40000E60FDF7EBFEE5214DF20F60FDF7E6FE9F
:103A500001214DF21060FDF7E1FE13214DF21160DE
:103A6000FDF7DCFE01214DF21260FDF7D7FE542177
:103A70004DF21360FDF7D2FE01214DF21460FDF707
:103A8000CDFE82214DF21560FDF7C8FE01214DF2F9
:103A90001660FDF7C3FECA214DF21760FDF7BEFEAA
:103AA00002214DF21860FDF7B9FE00214DF21960B8
:103AB000FDF7B4FE02214DF21A60FDF7AFFE0121C1
:103AC0004DF21B60FDF7AAFE02214DF21C60FDF7CE
:103AD000A5FE34214DF21D60FDF7A0FE02214DF23E
:103AE0001E60FDF79BFE67214DF21F60FDF796FEFD
:103AF00002214DF22060FDF791FE84214DF22160FC
:103B0000FDF78CFE02214DF22260FDF787FEA42115
:103B10004DF22360FDF782FE02214DF22460FDF795
:103B20007DFEB7214DF22560FDF778FE02214DF2B2
:103B30002660FDF773FECF214DF22760FDF76EFE84
:103B400002214DF22860FDF769FEDE214DF2296069
:103B5000FDF764FE02214DF22A60FDF75FFEF221BF
:103B60004DF22B60FDF75AFE02214DF22C60FDF75D
:103B700055FEFE214DF22D60FDF750FE03214DF262
:103B80002E60FDF74BFE10214DF22F60FDF746FE33
:103B900003214DF23060FDF741FE33214DF23160DB
:103BA000FDF73CFE03214DF23260FDF737FE6D213B
:103BB0004DF23360FDF732FE55214FF47040FDF7B2
:103BC0002DFEAA214FF20100FDF728FE52214FF2EF
:103BD0000200FDF723FE08214FF20300FDF71EFE51
:103BE00000214FF20400FDF719FECC214FF43140C3
:103BF000FDF714FE00214BF20110FDF70FFE052129
:103C00004FF43640FDF70AFE70214FF43740FDF7C0
:103C100005FE70214BF20170FDF700FE01214FF40B
:103C20003840FDF7FBFD03214BF60100FDF7F6FDE3
:103C300003214BF60200FDF7F1FD03214BF60300D3
:103C4000FDF7ECFD02214FF43C40FDF7E7FD0021BC
:103C50004BF60140FDF7E2FD00214BF60240FDF777
:103C6000DDFDD0214FF44940FDF7D8FD02214CF68F
:103C70000110FDF7D3FD50214CF60210FDF7CEFDEB
:103C800050214CF60310FDF7C9FD50214CF60410ED
:103C9000FDF7C4FD00214FF45450FDF7BFFD552141
:103CA0004FF46850FDF7BAFD4FF48850FDF7A6FDBC
:103CB000782002F0FBFB4FF42450FDF79FFD01F04C
:103CC0005EB9FE48808849F2253188427ED147F6A8
:103CD000F001E520FDF7A2FD4FF480710120FDF712
:103CE0009DFD4FF4E0610220FDF798FD41F23001A7
:103CF0000320FDF793FD00210420FDF78FFD40F226
:103D000002210820FDF78AFD00210920FDF786FD2C
:103D100000210A20FDF782FD00210C20FDF77EFD29
:103D200000210D20FDF77AFD00210F20FDF776FD23
:103D300000211020FDF772FD07211120FDF76EFD17
:103D400000211220FDF76AFD00211320FDF766FD1A
:103D500000210720FDF762FD41F290611020FDF780
:103D60005DFD40F227211120FDF758FD9D21122015
:103D7000FDF754FD4FF4C8511320FDF74FFD2521E9
:103D80002920FDF74BFD0D212B20FDF747FD0721D5
:103D90003020FDF743FD40F203313120FDF73EFDB9
:103DA00003213220FDF73AFD40F206213520FDF7D0
:103DB00035FD08213620FDF731FD40F20641372060
:103DC000FDF72CFD4FF44171382000E057E0FDF77E
:103DD00025FD07213920FDF721FD40F202613C203D
:103DE000FDF71CFD08213D20FDF718FD00215020A6
:103DF000FDF714FDEF215120FDF710FD00215220A9
:103E0000FDF70CFD40F23F115320FDF707FD4FF485
:103E100027416020FDF702FD01216120FDF7FEFC36
:103E200000216A20FDF7FAFC00218020FDF7F6FC56
:103E300000218120FDF7F2FC00218220FDF7EEFC3D
:103E400000218320FDF7EAFC00218420FDF7E6FC39
:103E500000218520FDF7E2FC10219020FDF7DEFC1B
:103E60004FF4C0619220FDF7D9FC40F233110720D6
:103E7000FDF7D4FC22210020FDF7D0FC1FE78F487E
:103E8000808849F2283188427ED141F28F01EC20AE
:103E9000FDF7C4FC41F23421EF20FDF7BFFC4FF4E5
:103EA00080710120FDF7BAFC4FF4E0610220FDF7BC
:103EB000B5FC41F230010320FDF7B0FC00210420E5
:103EC000FDF7ACFC40F202210820FDF7A7FC002121
:103ED0000920FDF7A3FC00210A20FDF79FFC01212A
:103EE0000C20FDF79BFC00210D20FDF797FC002125
:103EF0000F20FDF793FC00211020FDF78FFC072118
:103F00001120FDF78BFC00211220FDF787FC00211A
:103F10001320FDF783FC01210720FDF77FFC3220F1
:103F200002F09EFA41F290411020FDF777FC40F23A
:103F300027211120FDF772FC322002F091FA8A212C
:103F40001220FDF76BFC322002F08AFA4FF4D051B8
:103F50001320FDF763FC06212920FDF75FFC0D21EE
:103F60002B20FDF75BFC322002F07AFA00212020A2
:103F7000FDF754FC00212120FDF750FC322002F017
:103F80006FFA0021302000E074E0FDF747FC40F2BA
:103F900004613120FDF742FC40F205313220FDF78B
:103FA0003DFC00213520FDF739FC40F60941362063
:103FB000FDF734FC4FF401713720FDF72FFC40F280
:103FC00001313820FDF72AFC40F207713920FDF756
:103FD00025FC00213C20FDF721FC40F60A213D2074
:103FE000FDF71CFC322002F03BFA00215020FDF7C7
:103FF00015FCEF215120FDF711FC00215220FDF7A7
:104000000DFC40F23F115320FDF708FC4FF427410F
:104010006020FDF703FC01216120FDF7FFFB00217B
:104020006A20FDF7FBFB00218020FDF7F7FB002154
:104030008120FDF7F3FB00218220FDF7EFFB00213B
:104040008320FDF7EBFB00218420FDF7E7FB002137
:104050008520FDF7E3FB10219020FDF7DFFB4FF4F7
:10406000C0619220FDF7DAFB40F233110720FDF723
:10407000D5FB24E61148808849F2203188427DD161
:1040800000210846FDF7CAFB4FF480710120FDF7BF
:10409000C5FB4FF4E0610220FDF7C0FB41F23001A7
:1040A0000320FDF7BBFB00210420FDF7B7FB40F226
:1040B00002210820FDF7B2FB002101E044000020AE
:1040C0000920FDF7ABFB00210A20FDF7A7FB01212A
:1040D0000C20FDF7A3FB00210D20FDF79FFB002125
:1040E0000F20FDF79BFB322002F0BAF940F20111DC
:1040F0000720FDF793FB322002F0B2F94FF486510E
:104100001020FDF78BFB07211120FDF787FB4FF4F3
:1041100088711220FDF782FB4FF430611320FDF708
:104120007DFB00212920FDF779FB44F210012B20B3
:10413000FDF774FB00215020FDF770FBEF215120AB
:10414000FDF76CFB00215220FDF768FB40F23F11A8
:104150005320FDF763FB4FF41C516020FDF75EFB1D
:1041600001216120FDF75AFB00216A20FDF756FB73
:1041700000218020FDF752FB002100E031E081208A
:10418000FDF74CFB00218220FDF748FB0021832036
:10419000FDF744FB00218420FDF740FB0021852032
:1041A000FDF73CFB10219020FDF738FB0021922009
:1041B000FDF734FB01219320FDF730FB4FF48871AC
:1041C0009520FDF72BFB00219720FDF727FB002111
:1041D0009820FDF723FB40F273110720FDF71EFB2B
:1041E0006DE5FE48808849F2313188427DD141F247
:1041F0001401E720FDF712FB4FF480710120FDF759
:104200000DFB4FF400710220FDF708FB41F238016D
:104210000320FDF703FB40F202210820FDF7FEFA20
:1042200000210920FDF7FAFA00210A20FDF7F6FA2D
:1042300000210C20FDF7F2FA00210D20FDF7EEFA27
:1042400000210F20FDF7EAFA00211020FDF7E6FA21
:1042500007211120FDF7E2FA00211220FDF7DEFA16
:1042600000211320FDF7DAFAC82002F0F9F841F234
:1042700090611020FDF7D2FA40F227211120FDF7BE
:10428000CDFA322002F0ECF80C211220FDF7C6FA2C
:10429000322002F0E5F84FF400611320FDF7BEFA7A
:1042A00011212920FDF7BAFA0B212B20FDF7B6FAD0
:1042B000322002F0D5F800212020FDF7AFFA40F2BD
:1042C0003F112120FDF7AAFA00213020FDF7A6FAC0
:1042D0004FF483713120FDF7A1FA00213220FDF760
:1042E0009DFA4FF40171352000E064E0FDF796FA85
:1042F00041F20A613620FDF791FA40F2077137204A
:10430000FDF78CFA4FF483713820FDF787FA40F2FD
:1043100007713920FDF782FA40F202413C20FDF797
:104320007DFA40F60F413D20FDF778FA002150203C
:10433000FDF774FAEF215120FDF770FA00215220A9
:10434000FDF76CFA40F23F115320FDF767FA4FF486
:104350001C516020FDF762FA01216120FDF75EFA31
:1043600000216A20FDF75AFA00218020FDF756FA55
:1043700000218120FDF752FA00218220FDF74EFA3C
:1043800000218320FDF74AFA00218420FDF746FA38
:1043900000218520FDF742FA10219020FDF73EFA1A
:1043A0004FF4C0619220FDF739FA40F23311072033
:1043B000FDF734FA83E48948808845F20841884251
:1043C0007ED14FF480710120FDF728FA4FF4E061AF
:1043D0000220FDF723FA41F230010320FDF71EFA17
:1043E00000210420FDF71AFA40F207210820FDF70A
:1043F00015FA00210920FDF711FA00210A20FDF726
:104400000DFA00210C20FDF709FA00210D20FDF71F
:1044100005FA00210F20FDF701FA142002F020F820
:1044200041F2B0611020FDF7F9F901211120FDF7EB
:10443000F5F901211720FDF7F1F94FF49C711220D5
:10444000FDF7ECF94FF400611320FDF7E7F90921BE
:104450002920FDF7E3F909212A20FDF7DFF90021E2
:10446000A420FDF7DBF900215020FDF7D7F9EF215B
:104470005120FDF7D3F900215220FDF7CFF940F28A
:104480003F115320FDF7CAF94FF41C516020FDF78E
:10449000C5F901216120FDF7C1F900216A20FDF76E
:1044A000BDF900218020FDF7B9F900218120FDF739
:1044B000B5F900218220FDF7B1F90021832000E049
:1044C00023E0FDF7ABF900218420FDF7A7F90021D7
:1044D0008520FDF7A3F913219020FDF79FF9002116
:1044E0009220FDF79BF903219320FDF797F94FF4F4
:1044F00088719520FDF792F940F273110720FDF7BE
:104500008DF9322001F0ACFFB8E43448808841F2E4
:10451000055188427ED100210720FDF77FF9322026
:1045200001F09EFF4FF48E711220FDF777F9012103
:10453000A420FDF773F90F210820FDF76FF908217A
:104540000A20FDF76BF908210D20FDF767F940F20D
:1045500007713020FDF762F907213120FDF75EF980
:1045600040F203613220FDF759F94FF4E061332046
:10457000FDF754F940F202213420FDF74FF90221F2
:104580003520FDF74BF941F60F713620FDF746F95E
:1045900040F207713720FDF741F900213820FDF77F
:1045A0003DF900213920FDF739F940F207713A2031
:1045B000FDF734F900213B20FDF730F907213C20BD
:1045C000FDF72CF900213D20FDF728F9322001F0FC
:1045D00047FF01210720FDF721F901E044000020F9
:1045E00001211720FDF71AF9322001F039FF4FF4AD
:1045F000BD511020FDF712F940F217211120FDF7EF
:104600000DF94FF48F711220FDF708F94FF4706126
:10461000132000E097E0FDF701F900212A20FDF7C3
:10462000FDF80A212920FDF7F9F84FF49F711220B7
:10463000FDF7F4F800215020FDF7F0F8EF215120AC
:10464000FDF7ECF800215220FDF7E8F840F23F11A9
:104650005320FDF7E3F84FF41C516020FDF7DEF81E
:1046600001216120FDF7DAF800216A20FDF7D6F874
:1046700000218020FDF7D2F800218120FDF7CEF83F
:1046800000218220FDF7CAF800218320FDF7C6F83B
:1046900000218420FDF7C2F800218520FDF7BEF837
:1046A00013219020FDF7BAF84FF440719220FDF7E6
:1046B000B5F805219320FDF7B1F800219520FDF70D
:1046C000ADF800219720FDF7A9F800219820FDF70B
:1046D000A5F84FF480710120FDF7A0F84FF4E061D8
:1046E0000220FDF79BF841F238010320FDF796F810
:1046F00000210420FDF792F800210C20FDF78EF830
:1047000000210F20FDF78AF800212020FDF786F810
:1047100000212120FDF782F821210720FDF77EF8F6
:10472000142001F09DFE61210720FDF777F8142089
:1047300001F096FE40F273110720FDF76FF8142088
:1047400001F08EFE95E4FE4880884BF205518842C8
:104750007ED100210846FDF761F800210846FDF7EB
:104760005DF800210846FDF759F800210846FDF7DD
:1047700055F80121A420FDF751F8142001F070FE36
:104780004FF41C516020FDF749F840F20221082047
:10479000FDF744F84FF405713020FDF73FF843F280
:1047A00015713120FDF73AF840F204613220FDF72F
:1047B00035F840F616613320FDF730F842F211214A
:1047C0003420FDF72BF84FF4A8513520FDF726F8DB
:1047D00048F207513620FDF721F841F20741372012
:1047E000FDF71CF841F203413820FDF717F82021AE
:1047F0003920FDF713F81A219020FDF70FF800215A
:104800001020FDF70BF807211120FDF707F8002114
:104810001220FDF703F800211320FCF7FFFF1420FE
:1048200001F01EFE4FF4E6611020FCF7F7FF40F2A6
:1048300037111120FCF7F2FF142001F011FE4FF4A4
:10484000DC711220FCF7EAFF142001F009FE00E001
:1048500083E04FF470611320FCF7E0FF80212A20F1
:10486000FCF7DCFF48212920FCF7D8FF142001F0D9
:10487000F7FD4FF480710120FCF7D0FF4FF4E061A9
:104880000220FCF7CBFF41F238010320FCF7C6FF02
:1048900040F202210820FCF7C1FF00210A20FCF7AA
:1048A000BDFF00210C20FCF7B9FF00210D20FCF713
:1048B000B5FF30210E20FCF7B1FF00215020FCF79E
:1048C000ADFFEF215120FCF7A9FF00215220FCF79A
:1048D000A5FF40F23F115320FCF7A0FF4FF41C51FD
:1048E0006020FCF79BFF01216120FCF797FF00216E
:1048F0006A20FCF793FF11219020FCF78FFF4FF403
:10490000C0619220FCF78AFF40F202419320FCF73D
:1049100085FF02219420FCF781FF142001F0A0FD07
:1049200001210720FCF77AFF142001F099FD612195
:104930000720FCF773FF40F273110720FCF76EFFAE
:1049400000212020FCF76AFF00212120FCF766FFF0
:1049500022210020FCF762FF11E3794880884CF2A5
:10496000055188427ED100210846FCF757FF0021FF
:104970000846FCF753FF142001F072FD00210846A1
:10498000FCF74CFF00210846FCF748FF00210846D1
:10499000FCF744FF00210846FCF740FF0121A4205A
:1049A000FCF73CFF142001F05BFD4FF41C5160202C
:1049B000FCF734FF40F606010820FCF72FFF40F219
:1049C00003713020FCF72AFF01213120FCF726FF7C
:1049D00004213220FCF722FF4FF481713320FCF7D1
:1049E0001DFF4FF440713420FCF718FF40F2031113
:1049F0003520FCF713FF1F213620FCF70FFF40F294
:104A000003713720FCF70AFF01213820FCF706FF6D
:104A100004213920FCF702FF15219020FCF7FEFE4F
:104A20004FF482611020FCF7F9FE40F2472111207B
:104A3000FCF7F4FE4FF4DE711220FCF7EFFE4FF4AA
:104A400060611320FCF7EAFE782001F009FD4FF4C5
:104A500080710120FCF7E2FE4FF400710220FCF7A8
:104A6000DDFE00E050E041F230010320FCF7D6FE0D
:104A700008210A20FCF7D2FE00210C20FCF7CEFE14
:104A800020210E20FCF7CAFE00210F20FCF7C6FEF5
:104A900000212020FCF7C2FE00212120FCF7BEFEF1
:104AA0003D212A20FCF7BAFE142001F0D9FC2D216B
:104AB0002920FCF7B3FE00215020FCF7AFFE4DF299
:104AC000EF015120FCF7AAFE00215220FCF7A6FEC0
:104AD00040F23F115320FCF7A1FE00216120FCF7BA
:104AE0009DFE00216A20FCF799FE4FF44071922050
:104AF000FCF794FE05219320FCF790FE4FF48071A3
:104B00000720FCF78BFE3AE20D48808844F23151D1
:104B100088427CD101210020FCF780FE0A2001F0B0
:104B20009FFC41F228611020FCF778FE0E21122034
:104B3000FCF774FE40F639211320FCF76FFE01E00C
:104B4000440000200A2001F08BFC40211120FCF7DA
:104B500065FE50211520FCF761FE0A2001F080FC63
:104B60001E211220FCF75AFE0A2001F079FC4FF4B6
:104B7000B1511020FCF752FE42F639211320FCF708
:104B80004DFE0A2001F06CFC4FF480710120FCF70F
:104B900045FE4FF440710220FCF740FE41F238011F
:104BA0000320FCF73BFE40F202210820FCF736FE12
:104BB00008210A20FCF732FE00213020FCF72EFEEF
:104BC00040F202413120FCF729FE4FF4837132207C
:104BD000FCF724FE40F203513320FCF71FFE4FF494
:104BE00082713420FCF71AFE40F201313520FCF7C7
:104BF00015FE40F207713620FCF710FE40F2053139
:104C00003720FCF70BFE4FF40271382000E040E043
:104C1000FCF704FE40F60B713920FCF7FFFD022182
:104C20004120FCF7FBFD4FF41C516020FCF7F6FD22
:104C300001216120FCF7F2FD4FF404719020FCF794
:104C4000EDFD4FF485719220FCF7E8FD04219320DF
:104C5000FCF7E4FD4FF48071A020FCF7DFFD01219B
:104C60000720FCF7DBFD21210720FCF7D7FD2321DE
:104C70000720FCF7D3FD33210720FCF7CFFD40F2DE
:104C800033110720FCF7CAFD0021A020FCF7C6FD68
:104C900075E1C148808844F2355188427ED1302187
:104CA0001520FCF7BBFD10219A20FCF7B7FD202151
:104CB0001120FCF7B3FD43F228411020FCF7AEFDB4
:104CC00002211220FCF7AAFD41F238011320FCF763
:104CD000A5FD282001F0C4FB12210846FCF79EFD2B
:104CE000282001F0BDFB43F220411020FCF796FD87
:104CF00043F238011320FCF791FD462001F0B0FB90
:104D000000213020FCF78AFD40F202413120FCF7FF
:104D100085FD40F207313220FCF780FD4FF44171F0
:104D20003320FCF77BFD04213420FCF777FD40F2B3
:104D300001413520FCF772FD40F207713620FCF787
:104D40006DFD40F205313720FCF768FD4FF4C2617C
:104D50003820FCF763FD4FF4C2613920FCF75EFD9B
:104D60004FF480710120FCF759FD4FF4407102208F
:104D7000FCF754FD41F230010320FCF74FFD40F6F3
:104D800008010820FCF74AFD08210A20FCF746FD2F
:104D90004FF41C516020FCF741FD00E031E001219F
:104DA0006120FCF73BFD4FF49F719020FCF736FD2E
:104DB0004FF480719220FCF731FD4FF48071932005
:104DC000FCF72CFD4FF44051A020FCF727FD1021EB
:104DD000A320FCF723FD01210720FCF71FFD212163
:104DE0000720FCF71BFD23210720FCF717FD3321CB
:104DF0000720FCF713FD40F233110720FCF70EFDEE
:104E0000BDE06548808841F663118842F8D1E22010
:104E1000FCF7F4FC1D20FCF7EBFC0220FCF7E8FC9F
:104E20000420FCF7E5FC642001F040FBE020FCF7E7
:104E3000E5FC0120FCF7DCFC0A2001F011FBE0207E
:104E4000FCF7DCFC0320FCF7D3FC0C2001F008FB92
:104E50000120FCF7D3FC0A2001F002FBE620FCF75E
:104E6000CDFC2F20FCF7C4FCFF20FCF7C1FCFF2089
:104E7000FCF7BEFCB020FCF7C1FC2020FCF7B8FC1E
:104E80000020FCF7B5FC0320FCF7B2FC40F21F3019
:104E9000FCF7AEFC0120FCF7ABFC40F2DF10FCF7A6
:104EA000A7FC0020FCF7A4FCB420FCF7A7FC04201E
:104EB000FCF79EFC40F21F40FCF79AFC0020FCF738
:104EC00097FC2E20FCF794FC0020FCF791FC0020BE
:104ED000FCF78EFC0020FCF78BFC0020FCF788FC24
:104EE000B620FCF78BFC0220FCF782FC4FF4037029
:104EF000FCF77EFC0020FCF77BFC1720FCF778FC1D
:104F00001520FCF775FC0020FCF772FC0020FCF774
:104F10006FFCF020FCF772FC0320FCF769FC2920F1
:104F2000FCF76CFCD020FCF769FC0020FCF760FC6F
:104F3000BE20FCF763FC0520FCF75AFCFE20FCF7C2
:104F400057FC0120FCF754FC0020FCF751FC00202A
:104F5000FCF74EFC0020FCF74BFCB820FCF74EFCA5
:104F60000320FCF745FC0120FCF742FCBA20FCF7CB
:104F700045FC0120FCF73CFC6420FCF7FDF8002018
:104F8000FBF7E8FE0120054908604FF6FF70FBF7CC
:104F9000ABFE1FB000BD0000440000208081214214
:104FA00008B50121482000F0A1F810208DF8030079
:104FB0002020ADF8000003208DF8020069460C485F
:104FC000FBF77FFD20210A48FBF711FE10208DF82A
:104FD00003002020ADF8000003208DF80200694690
:104FE0000448FBF76EFD20210248FBF700FE08BDD8
:104FF000000C01400018014000BFFEE770470000B0
:1050000070B5002100230F22C47804B3154C246826
:1050100004F4E064C4F5E064210AC1F10403CA4069
:10502000447804FA03F184781440214309010E4CBA
:105030000678A155047804F01F050124AC400578DA
:105040006D11AD0005F1E025C5F8004109E00478D7
:1050500004F01F050124AC40044D0678761145F894
:10506000264070BD0CED00E000E400E080E100E0CF
:1050700002490143024A1160704700000000FA052E
:105080000CED00E0014908627047000000000E428C
:105090007047000001460020034A506820F4404059
:1050A00008435060704700000010024029B1064AD2
:1050B00052690243044B5A6104E0034A5269824335
:1050C000014B5A61704700000010024029B1064AA6
:1050D000D2690243044BDA6104E0034AD269824395
:1050E000014BDA61704700000010024029B1064A06
:1050F00092690243044B9A6104E0034A9269824335
:10510000014B9A61704700000010024029B1064A25
:10511000D2680243044BDA6004E0034AD268824357
:10512000014BDA607047000000100240014908603E
:10513000704700004004424230B5002100220024A4
:1051400000232D4D6D6805F00C0121B1042905D017
:10515000082923D105E0294D056022E0274D05608F
:105160001FE0254D6D6805F47012234D6D6805F440
:105170008034022505EB92421CB9214D5543056050
:105180000BE01D4D6D6805F400351DB11C4D5543F8
:10519000056002E0194D5543056002E0174D0560BA
:1051A00000BF00BF144D6D6805F0F0010909154DF1
:1051B0006B5C0568DD4045600F4D6D6805F4E0618E
:1051C000090A104D6B5C4568DD4085600A4D6D68CD
:1051D00005F46051C90A0B4D6B5C4568DD40C56044
:1051E000054D6D6805F44041890B074D6B5CC56842
:1051F000B5FBF3F5056130BD0010024000127A00E6
:1052000000093D00140000202400002010B50146D4
:105210000022002300204A11012A02D1094C2368F0
:1052200006E0022A02D1074C236A01E0054C636ABA
:1052300001F01F02012494401C400CB1012000E049
:10524000002010BD0010024000210B4A11700A4AD4
:10525000203A82F82010012802D0042808D103E067
:105260000121054A117004E00521034A117000E094
:1052700000BF00BF704700002010024001490860D5
:10528000704700003C0442420249096A0143014A56
:105290001162704700100240024909888143014AA7
:1052A00011807047042800400348008840F0100037
:1052B0000149088070470000042800400348008826
:1052C0004FF6EF71084001490880704704280040FC
:1052D00070B500260024002500F07AF8064638480C
:1052E000B6FBF0F437480088A0423CD035490C802A
:1052F00040F2B27510E02846FBF7D8FC40B1B4F597
:10530000B77F02D3A4F5B77404E0681C85B206E049
:10531000A4F26D14681C85B2B4F5B67FEBD800BF5B
:1053200029488580002516E027498888FBF7BEFCC0
:1053300030B1012D04D11D2C01D31D3C09E00CE03E
:105340002248405DA04203D82048405D241A00E076
:1053500003E0681C85B21C2CE6D200BF681C1A4909
:105360008871601CC8711648B6FBF0F100FB11642F
:105370004FF46160B4FBF0F0134908704FF46160C2
:10538000B4FBF0F100FB11403C21B0FBF1F00E4901
:1053900048704FF46160B4FBF0F100FB11403C2118
:1053A000B0FBF1F201FB1200074988700B46DA7975
:1053B0009979988800F028F803490872002070BD98
:1053C000805101003600002052000020608100085A
:1053D000002103480188001F008841EA004070470F
:1053E0001C28004001460020064A12880A40D0B21C
:1053F000044A121F12880A4012B108B1012000E0CD
:105400000020704704280040F0B503460C461546BE
:10541000642093FBF0F0C6B2642093FBF0F700FB2E
:105420001730C1B2132E02DD01F16400C1B208468B
:10543000CF1701EB977701EBA707BAB2072092FBD2
:10544000F0F700FB172082B25719601EDFF82CC05E
:105450001CF80000384482B2CF1701EB9777BF10D9
:10546000A1EB87071FB9032C01DA501E82B2072077
:1054700092FBF0F700FB1720C0B2F0BD548100088A
:105480000EB50120FFF7AEFF08B1FFF721FF0220A4
:10549000FFF7A8FFA0B10220FFF7FEFEFFF718FFFD
:1054A0000A48807809494978084A1278CDE90021EC
:1054B00002900648C3798279818805A0FAF7B0FE88
:1054C0000520FFF7E9FE00F0B5F80EBD5200002000
:1054D000416C61726D2054696D653A25642D2564B7
:1054E0002D25642025643A25643A25640A000000CD
:1054F00029B1064A12880243044B1A8004E0034A89
:1055000012888243014B1A80704700000028004037
:1055100008B503208DF8000000208DF801008DF8FB
:10552000020001208DF803006846FFF769FD08BD01
:105530002DE9F05F06460F4690469946DDE90AAB35
:10554000002440F2B270864203DB40F6330086420C
:1055500002DD0120BDE8F09F40F2B2750AE0284666
:10556000FBF7A4FB10B12048044401E01F480444A9
:10557000681C85B2B542F2DB781EC7B2002510E088
:105580001B48405D40F2A321484304EBC014304661
:10559000FBF78CFB18B1012D01D116480444681C9F
:1055A00085B2BD42ECDBA8F1010040F2A3214843E3
:1055B00004EBC014C9EB4910C0EB092004EB001444
:1055C000CAEB0A1004EB80045C4401214FF0C05088
:1055D000FFF77CFD0120FFF755FD204600F00CF899
:1055E00000F028F80020B5E70085E2018033E101F2
:1055F000608100088051010000B50246FFF754FEAB
:10560000100C03490880091D0A80FFF757FE00BDF2
:105610001828004000B50246FFF746FEC2F30340DB
:1056200003490880091D0A80FFF748FE00BD0000FD
:105630000828004000BF0348008800F02000002830
:10564000F9D0704704280040074800884FF6F771EA
:1056500008400549088000BF0348008800F00800A2
:105660000028F9D070470000042800401CB5002431
:1056700001214FF0C050FFF729FD0120FFF702FD87
:105680000420FBF727F845F2510188423FD0FBF791
:1056900019F80120FFF7D8FD04E0601CC4B20A200D
:1056A00000F0DEFE4120FFF7B1FD08B9FA2CF4DB73
:1056B000FA2C01DB01201CBD4FF48070FFF7E4FDE4
:1056C0000120FFF7DBFDFFF7B5FFFFF7BDFF01216D
:1056D0000846FFF70DFFFFF7ADFFFFF7E5FD47F6C3
:1056E000FF70FFF797FFFFF7A5FF002000900B2347
:1056F00012220221019040F2E470FFF719FFFFF738
:10570000DDFD45F251010420FAF7F2FF07E0FFF753
:105710009BFF01210846FFF7EBFEFFF78BFFFFF72A
:10572000F7FEFFF7D5FD0020C5E730B503460C4670
:105730001546002207E0184600F008F824F8120089
:105740009B1C501C82B2AA42F5DB30BD0146088882
:10575000704700002DE9F05F80468A461746B8F191
:10576000006F02D33348804501D3BDE8F09FFBF7BB
:10577000FBF8A8F1006B4FEADB25CBF34909C9F52B
:105780008064A74200DC3C464DE04FF0006101EB35
:10579000C5204A142849FFF7C8FF00260BE009EB93
:1057A0000600254931F810004FF6FF71884200D0FD
:1057B00003E0701C86B2A642F1DB00BFA6421BDAF2
:1057C0004FF0006101EBC520FBF764F8002608E00C
:1057D0003AF8160006EB0901174A22F81100701C6E
:1057E00086B2A642F4DB4FF0006101EBC5204A14FB
:1057F000114900F023F804E022465146404600F0EB
:105800001DF8A74200D10FE06D1C4FF000090AEB14
:10581000440AA044381B87B2B7F5806F02DD4FF40D
:10582000806400E03C46B0E700BFFBF773F800BFC0
:105830009BE70000000008085C0000202DE9F04113
:1058400005460E461746002407E036F81410284691
:10585000FBF76AF8AD1C601C84B2BC42F5DBBDE806
:10586000F081704710B500F001F810BD0CB50020B4
:10587000019000903348006840F48030314908605E
:1058800000BF3048006800F4003000900198401CD0
:105890000190009818B90198B0F5A06FF1D129488E
:1058A000006800F4003010B10120009001E00020F9
:1058B00000900098012843D12348006840F0100070
:1058C000214908600846006820F003000860084687
:1058D000006840F0020008601A48406819494860B2
:1058E0000846406848600846406840F48060486068
:1058F0000846406820F47C1048600846406840F440
:10590000E81048600846006840F08070086000BFFA
:105910000C48006800F000700028F9D00948406881
:1059200020F00300074948600846406840F0020044
:10593000486000BF0348406800F00C000828F9D117
:105940000CBD00000010024000200240042808D1D5
:105950004FF0E021096941F004014FF0E0221161AC
:1059600007E04FF0E021096921F004014FF0E02247
:105970001161704710B51348006840F001001149EB
:10598000086008464068104908400E4948600846CB
:1059900000680E4908400B4908600846006820F47A
:1059A000802008600846406820F4FE0048604FF4FC
:1059B0001F008860FFF756FF4FF000600449086041
:1059C00010BD0000001002400000FFF8FFFFF6FECF
:1059D00008ED00E0F0B50C46154600220021068CCB
:1059E0004FF6FE773E400684028B018C4FF60C7614
:1059F00032407E1C06EA03162E433243104EB0425C
:105A00000ED0104EB0420BD0B0F1804F08D00E4EE9
:105A1000B04205D00D4EB04202D00D4EB04206D17C
:105A20004FF6FD76314044F00106314305E04FF674
:105A3000F576314044F00106314302830184F0BD24
:105A4000002C0140003401400004004000080040E8
:105A5000000C0040F0B50C4615460022002100263F
:105A6000078C4FF6EF7C07EA0C070784028B018C4A
:105A70004FF6FF7707EA041640F6FF473A404FF625
:105A8000FF7707EA03373A434FF6FF7707EA052720
:105A90003A43114FB8420ED0104FB8420BD0B0F17C
:105AA000804F08D00E4FB84205D00E4FB84202D0FA
:105AB0000D4FB84206D14FF6DF77394046F0100758
:105AC000394305E04FF65F77394044F0100739431A
:105AD00002830184F0BD0000002C0140003401402D
